:020000040800F2
:100000005013002095010008712B00089F01000883
:100010006D2B000809070008C164000800000000FB
:10002000000000000000000000000000A701000820
:100030004907000800000000AB010008355900081E
:10004000AF010008AF010008AF010008AF010008D0
:10005000AF010008AF010008570700089D0700081E
:10006000AB070008B9070008C7070008AF01000880
:10007000AF010008AF010008AF010008AF010008A0
:10008000AF010008AF010008AF010008AF01000890
:10009000AF010008AF010008AF010008D507000854
:1000A00000000000AF010008AF010008AF01000828
:1000B000655B0008755B0008855B0008AF01000800
:1000C000AF010008AF010008AF010008AF01000850
:1000D000AF0100084D620008AF010008AF01000841
:1000E0006507000841310008AF010008AF010008B2
:1000F000AF01000800F002F800F03CF80AA090E818
:10010000000C82448344AAF10107DA4501D100F0D2
:1001100031F8AFF2090EBAE80F0013F0010F18BF63
:10012000FB1A43F001031847608000008080000044
:10013000103A24BF78C878C1FAD8520724BF30C813
:1001400030C144BF04680C607047000000230024E5
:1001500000250026103A28BF78C1FBD8520728BFD7
:1001600030C148BF0B607047002070471FB51FBDEE
:1001700010B510BD00F0C0F91146FFF7F7FF06F00B
:1001800095FA00F0DEF903B4FFF7F2FF03BC06F0C6
:10019000A0F900000948804709480047FEE7FEE74C
:1001A000FEE7FEE7FEE7FEE7FEE7FEE7FEE7FEE727
:1001B00004480549054A064B70470000015B0008EA
:1001C000F50000085007002050130020500F0020B9
:1001D000500F0020704700000FB4044910B503AA67
:1001E000029800F057F910BC5DF814FB28000020BD
:1001F0002DE9F0474FF0000A89460446C0F820A0D8
:100200002046E1688847002876D0252806D0D4E922
:1002100001219047206A401C2062F1E7E1682046F6
:1002200000268847C4F81CA005460027C4F818A07B
:100230002A2D09D0284606F045F938B304EB870883
:10024000303DC8F8185019E059F8041B204604EB5B
:1002500087029161E1688847012F054618D1E0695E
:10026000002820DA26F020061DE0D8F8180000EB60
:10027000800005EB40003038C8F818002046E168DF
:100280008847054606F01EF90028EED1012F0AD056
:100290002E2D08D12046E16888477F1C0546022F95
:1002A00046F02006C4DBA069002803DA404246F08D
:1002B0000106A061F00701D026F010066C2D0AD0CF
:1002C000682D08D04C2D39D06A2D35D0742D35D0FD
:1002D0007A2D33D016E0E1682F4620468847B84291
:1002E00005460AD16C2F27D04FF48060E1680643A1
:1002F00020468847054605E027E06C2F1AD04FF4CA
:10030000807006430DB3A5F14100192802D82035AD
:1003100046F400664A462946204626604E46FFF7C8
:1003200023FF80B101280BD0F61D26F0070000F155
:10033000080965E74020E4E78020D7E70020D5E7FB
:1003400006F104095CE7284661E7206ABDE8F0870A
:10035000032A40F2308010F0030C00F0158011F8F1
:10036000013BBCF1020F624498BF11F801CB00F8C9
:10037000013B38BF11F8013BA2F1040298BF00F81D
:1003800001CB38BF00F8013B11F0030300F02580DA
:10039000083AC0F0088051F8043B083A51F804CB01
:1003A000A0E80810F5E7121D5CBF51F8043B40F8C7
:1003B000043BAFF30080D20724BF11F8013B11F8D2
:1003C00001CB48BF11F8012B24BF00F8013B00F816
:1003D00001CB48BF00F8012B704710B5203AC0F0A0
:1003E0000B80B1E81850203AA0E81850B1E8185036
:1003F000A0E81850BFF4F5AF5FEA027C24BFB1E873
:100400001850A0E8185044BF18C918C0BDE81040E3
:100410005FEA827C24BF51F8043B40F8043B08BFEC
:100420007047D20728BF31F8023B48BF11F8012BB3
:1004300028BF20F8023B48BF00F8012B70474FF05F
:10044000000200B5134694469646203922BFA0E824
:100450000C50A0E80C50B1F12001BFF4F7AF090730
:1004600028BFA0E80C5048BF0CC05DF804EB890021
:1004700028BF40F8042B08BF704748BF20F8022B64
:1004800011F0804F18BF00F8012B7047704770477C
:1004900070477047074B70B50D467B4400F011F86C
:1004A0000446284600F020F810B14FF0FF3070BD30
:1004B000204670BDF361000001694A1C02610878A2
:1004C000704700B58FB0CDE9013100210591054994
:1004D0007944CDE9031011466846FFF789FE0FB055
:1004E00000BD0000E5FFFFFF007B00F080007047CB
:1004F00000487047F00600207546FFF7F9FFAE464A
:1005000005006946534620F00700854618B020B51F
:10051000FFF74EFEBDE820404FF000064FF0000709
:100520004FF000084FF0000B21F00701AC46ACE89B
:10053000C009ACE8C009ACE8C009ACE8C0098D4608
:10054000704710B50446AFF300802046BDE8104068
:10055000FFF719BE0021014A1170704750000020BA
:1005600010B50446012C01D103F070F90148047064
:1005700010BD00001100002000B585B01648FFF73F
:10058000E9FF164805F057F803F0E0FB0020009063
:10059000034603225021019002A800F04FF90020E9
:1005A0000090034603225121019002A800F046F971
:1005B00000200090034602462E21019002A800F080
:1005C0003DF900200090034602462F21019002A829
:1005D00000F034F905B000BD90010020C8050020EE
:1005E00072B603480078401C01490870704700004B
:1005F0000600002004480078401E034908700846A1
:10060000007800B962B670470600002008B51348AC
:10061000007840B900F002FC05F092F903F0BEF852
:1006200000F040F801E005F0E7F94FF0FF30052356
:100630000622072100900A4805F09AF803F0A8FB6B
:100640000648007840B901200449087000F0D7F846
:10065000012801D100F05AF808BD00000400002074
:10066000C80500201CB5002000900346012203218C
:1006700001900A4800F0E2F80020009003460122B1
:1006800018210190064800F0D9F80121034800F034
:100690006AFA0121024800F066FA1CBD78010020C8
:1006A0008401002000B585B000F0A9F8012811D11F
:1006B00000200090034603220B21019002A800F0C5
:1006C000BDF800200090034603220C21019002A8EF
:1006D00000F0B4F8002000900123032212210190C1
:1006E00002A800F0ABF80020009003460322082186
:1006F000019002A800F0A2F800F058FA00F042FAC7
:1007000000F04AFA05B000BD00BFFEE710B50B4887
:10071000007890B90A490B4805F050FA4FF47A7105
:10072000084805F017FB074805F01EFB01E005F03F
:10073000DFFA024800780028F9D010BD050000203B
:10074000912F0008D4010020704710B504462046C0
:1007500000F036FA10BD10B503F078F8012000F073
:1007600053FA10BD10B503F071F84FF4806000F03B
:100770004BFA4FF4006000F047FA4FF4805000F05D
:1007800043FA4FF4005000F03FFA4FF4804000F07D
:100790003BFA4FF4004000F037FA10BD10B503F0FB
:1007A00055F8022000F030FA10BD10B503F04EF8F5
:1007B000042000F029FA10BD10B503F047F8082016
:1007C00000F022FA10BD10B503F040F8102000F040
:1007D0001BFA10BD10B503F039F8202000F014FA10
:1007E000402000F011FA802000F00EFA4FF48070E3
:1007F00000F00AFA4FF4007000F006FA10BD002075
:10080000704700000246002111E00B4850F831000B
:1008100090420AD8084B481C53F83000904204D943
:10082000184600EBC10000797047481CC1B2152979
:10083000EBD300BFFEE70000D88000082DE9FC479D
:1008400005460C4616461F46DDE90A890620B0EB30
:10085000241F07D33B46324621462846CDE900896E
:1008600000F002F8BDE8FC872DE9F04387B00446AC
:100870000E4615461F46DDE90E982670701C10B90D
:1008800007B0BDE8F083207800F00F010120884018
:100890006080207800F0F00078B94748606000BFC1
:1008A0004648006840F00100444908600846006876
:1008B00000F00100019000BF4EE0207800F0F00051
:1008C00010280FD13E48606000BF3C48006840F0EF
:1008D00002003A4908600846006800F002000190F2
:1008E00000BF39E0207800F0F00020280FD1354813
:1008F000606000BF3148006840F004002F49086084
:100900000846006800F00400019000BF24E0207851
:1009100000F0F00030280FD12B48606000BF27485E
:10092000006840F00800254908600846006800F0AB
:100930000800019000BF0FE02448606000BF1F481E
:10094000006840F020001D4908600846006800F07B
:100950002000019000BF00BF6088029084F80A90D8
:10096000CDF810900220059015B90020039017E0F3
:10097000032D02D10320039012E0022D09D1012F93
:1009800002D11220039001E002200390CDF81880DC
:1009900006E0012F02D11120039001E00120039015
:1009A000012D03D14146204600F0B6F802A9606847
:1009B00000F038F900BF63E7000002401C38024035
:1009C0000004024000080240000C024000140240F3
:1009D0002DE9F04385B004460D4616461F464FF0FC
:1009E00000084FF0060917B905B0BDE8F08360882C
:1009F0000090012D02D14448019006E0022D02D161
:100A00004248019001E042480190A07A0290022001
:100A100003906946606800F005F9052E0ED2DFE804
:100A200006F00304070A0E0000BF4FF0030809E0B8
:100A30004FF0020806E04FF0010803E000BF4FF05E
:100A4000000800BF00BF6088B0F5807F3DD012DC99
:100A5000102834D008DC012825D0022826D004280C
:100A600027D008283DD127E020282BD040282AD0A5
:100A7000802836D128E0B0F5805F2CD009DCB0F5B5
:100A8000007F23D0B0F5806F23D0B0F5006F28D160
:100A900020E0B0F5005F1FD0B0F5804F1DD0B0F55D
:100AA000004F1ED11AE04FF006091BE04FF0070976
:100AB00018E04FF0080915E04FF0090912E04FF077
:100AC0000A090FE000BF00BF00BF00BF4FF01709C9
:100AD00008E000BF00BF00BF00BF00BF4FF0280903
:100AE00000E000BF00BF207800F00F00094941F886
:100AF000207000224146484600F0BEF9484600F00A
:100B0000AEF900BF70E700000000111000002110D6
:100B100000003110E801002070B504460D460CB10C
:100B2000606800B900BF94F90000401C00B970BDB6
:100B3000EAB26188606800F05DF900BFF7E72DE96F
:100B4000F04104460D4616461F4694F90000062162
:100B5000B1EB201F05D33B46324629462046FFF71E
:100B600037FFBDE8F08170B504460D4694F90000EA
:100B70000621B1EB201F03D329462046FFF7CCFF07
:100B800070BD00000348406840F001000149486022
:100B900070470000002004E00348406840F0040073
:100BA0000149486070470000002004E003484068A5
:100BB00040F002000149486070470000002004E056
:100BC00031B5002400F01CF9044600BF00F018F90C
:100BD000001B00998842F9D338BD000070B5044667
:100BE0000025002C05DD02E06410681CC5B2012C54
:100BF000FAD1044850F8250018B1024951F82500EF
:100C0000804770BDE801002010B504460448006824
:100C1000204020B1024804602046FFF7DFFF10BDEE
:100C20001404014078B50346002200240020CAE0E5
:100C3000012696400D6805EA0604002C71D04D6827
:100C4000022D02D04D68122D13D1D60803F12005D4
:100C500055F826005507EE0E0F25B540A843560758
:100C6000F60E0D69B5402843D60803F1200545F876
:100C70002600186856000325B540A8430D7905F0F5
:100C800003055600B540284318604D68012D08D073
:100C90004D68022D05D04D68112D02D04D68122DE2
:100CA00013D1986856000325B540A8435600CD6877
:100CB000B54028439860586801259540A8430D79B0
:100CC000C5F30015954028435860D86856000325A1
:100CD000B540A84356008D68B5402843D8604D689C
:100CE00005F08055B5F1805F6CD100BF394D2D689E
:100CF00045F00105374E356035462D6805F0010594
:100D0000009500BF00BF344D960855F826009507A2
:100D10002E0F0F25B540A843304DAB4202D1002520
:100D200015E04FE02E4DAB4201D101250FE02D4DD6
:100D3000AB4201D102250AE02B4DAB4201D1032584
:100D400005E02A4DAB4201D1042500E005259607B8
:100D5000360FB5402843204D960845F82600244D0F
:100D60002868A0434D6805F48035B5F5803F00D173
:100D700020431F4D28602D1D2868A0434D6805F4B1
:100D80000035B5F5003F00D12043194D2D1D2860D9
:100D90002D1D2868A0434D6805F48015B5F5801F0A
:100DA00000D12043124D083528602D1D2868A0432E
:100DB0004D6805F40015B5F5001F00D120430C4D1A
:100DC0000C352860521C0D68D540002D7FF430AFE3
:100DD00078BD0000203802400800014000000240B9
:100DE0000004024000080240000C024000100240D3
:100DF000000401400AB1816101E00B048361704786
:100E00000148006870470000300000200248006878
:100E1000401C0149086070473000002010B50320D5
:100E200000F068F8002000F005F800F017F8002046
:100E300010BD000070B50446074800684FF47A7191
:100E4000B0FBF1F5284601F00DFD00222146501EB1
:100E500000F012F8002070BD2C000020704700BF89
:100E600000F01F02012191404209920002F1E022AC
:100E7000C2F8001100BF70472DE9F05F80460D46B3
:100E80001646002701F0E4FE074639462A46334657
:100E900001F00700C0F1070ABAF1040F02D94FF0C0
:100EA000040A01E0C0F1070AD14600F1040ABAF1D0
:100EB000070F02D24FF0000A01E0A0F1030AD44666
:100EC0004FF0010A0AFA09FAAAF1010A0AEA020A2B
:100ED0000AFA0CFA4FF0010B0BFA0CFBABF1010B09
:100EE0000BEA030B4AEA0B042146404601F0B8FE28
:100EF000BDE8F09F00BF00F00702064B19684FF6EF
:100F0000FF031940044B0B4343EA0221014B1960D4
:100F100000BF70470CED00E00000FA0501208102DF
:100F200091FAA1F1B1FA81F1014A42F8210070472A
:100F300000000E420120410291FAA1F1B1FA81F1C3
:100F4000014A42F82100704700000E4200201021A3
:100F500091FAA1F1B1FA81F1014A42F821007047FA
:100F600000000E420D4A126822F0030202430B4BAE
:100F70001A600B4A126842F00402094B1A600129F8
:100F800001D130BF02E040BF20BF20BF044A126839
:100F900022F00402024B1A6070470000007000400B
:100FA00010ED00E0F8B5044600260025207800F09A
:100FB000010000287ED0207800F0010000B100BFC1
:100FC00000276A48006800F0805070B900BF674889
:100FD000006840F08050654908600846006800F0ED
:100FE0008050009000BF00BF01276148006800F4F6
:100FF0008070B0B95E48006840F480705C49086059
:10100000FFF7FEFE064606E0FFF7FAFE801B6428A7
:1010100001D90320F8BD5648006800F4807000280C
:10102000F2D052482438006800F0C045606800F0F3
:10103000C040A8420DD0606800F44030B0F5403F99
:1010400007D14A482438006800F4003008B1012074
:10105000E0E746481030006800F44035002D59D0D4
:10106000606800F44030A84254D0207800F00100BD
:1010700078B33E481030006820F440350121C8059F
:1010800090FAA0F0B0FA80F03A4A02EB8000C0F883
:10109000801600214FF4000090FAA0F0B0FA80F022
:1010A00002EB8000C0F8801630481030056005F46F
:1010B000807000E057E060B1FFF7A2FE064609E04D
:1010C000FFF79EFE801B41F28831884202D903203F
:1010D000A0E71FE04020C10091FAA1F1B1FA81F12F
:1010E00008430121B1EB601F03D120482438006878
:1010F00002E01E48103000684021CA0092FAA2F2B5
:10110000B2FA82F2114301F01F020121914008401E
:101110000028D5D000BF00BF606800F44030B0F5B3
:10112000403F0BD111482438006820F0C04061686E
:1011300001F0C04108430D492439086000BF0B4845
:1011400010300068616801F44031084307491031EC
:10115000086000BF012F05D10448006820F08050CE
:101160000249086000BF002054E700002438024014
:10117000007000400000474270B504460D4600264E
:10118000B348006800F00100A84218D200BF012D4A
:1011900005D1AF48006840F00400AD490860AC4894
:1011A000006820F001002843A949086000BF0846F4
:1011B000006800F00100A84201D0012070BD207835
:1011C00000F00200022807D1A248006820F0F000D9
:1011D000A16808439F490860207800F001000028BA
:1011E0007BD06068022821D12020010391FAA1F16F
:1011F000B1FA81F108430121B1EB601F03D1954899
:101200000838006802E093482C30006820210A0367
:1012100092FAA2F2B2FA82F2114301F01F02012106
:101220009140084000286CD10120C7E7606803287E
:1012300020D12020010591FAA1F1B1FA81F10843F2
:101240000121B1EB601F03D182480838006802E039
:1012500080482C30006820210A0592FAA2F2B2FAE6
:1012600082F2114301F01F02012191400840A8BB06
:101270000120A3E76068012820D12020022191FAF3
:10128000A1F1B1FA81F108430121B1EB601F03D153
:1012900070480838006802E06E482C300068202151
:1012A000022292FAA2F2B2FA82F2114301F01F0274
:1012B00001219140084088B901207FE720200101E9
:1012C00091FAA1F1B1FA81F108430121B1EB601F5C
:1012D00005D160480838006804E069E011E05D4825
:1012E0002C30006820210A0192FAA2F2B2FA82F2AE
:1012F000114301F01F0201219140084008B901206B
:101300005CE75448006820F00300616808435149D5
:101310000860FFF775FD06466068022810D108E0F6
:10132000FFF76EFD801B41F28831884201D903200E
:1013300044E74848006800F00C000828F0D137E086
:101340006068032810D108E0FFF75AFD801B41F2C6
:101350008831884201D9032030E73E48006800F018
:101360000C000C28F0D123E06068012810D108E0BF
:10137000FFF746FD801B41F28831884201D90320E6
:101380001CE73448006800F00C000428F0D10FE09E
:1013900008E0FFF735FD801B41F28831884201D912
:1013A00003200BE72B48006800F00C000028F0D168
:1013B0002748006800F00100A84218D900BF012D9D
:1013C00005D12348006840F0040021490860204806
:1013D000006820F0010028431D49086000BF08464E
:1013E000006800F00100A84201D00120E6E6207864
:1013F00000F00400042807D11648006820F4E060DB
:10140000E168084313490860207800F008000828C4
:1014100008D11048006820F46050216940EAC100FA
:101420000C49086000F04EF80A49096801F0F00123
:10143000F02292FAA2F2B2FA82F2D140064A515C4C
:10144000C840064908600020FFF7F4FC0020B5E61C
:10145000003C024008380240857200082C00002041
:1014600001480068704700002C00002000B5FFF71D
:10147000F7FF0749096801F4E0614FF4E06292FA6E
:10148000A2F2B2FA82F2D140024A515CC84000BDD9
:10149000083802409572000800B5FFF7E1FF0749E0
:1014A000096801F460514FF4605292FAA2F2B2FA64
:1014B00082F2D140024A515CC84000BD0838024067
:1014C00095720008F0B500210023002400220025B9
:1014D0000020254E316801F00C067EB3042E04D0A6
:1014E000082E04D00C2E2AD103E020483AE02048F0
:1014F00038E001F470164FF4701797FAA7F7B7FAAF
:1015000087F7FE401B4FBB5D01F440064FF44007D8
:1015100097FAA7F7B7FA87F7FE40741C124E3668A1
:1015200006F4803626B1124E5E43B6FBF4F203E0B9
:101530000E4E5E43B6FBF4F2104613E000E000BF2F
:10154000094E361F366806F460464FF4604797FA36
:10155000A7F7B7FA87F726FA07F56E1C0127B740F9
:10156000F80300BF00BFF0BD083802400024F400BB
:1015700000127A007C720008F8B504460025207835
:1015800000F00100002879D0F748006800F00C0056
:1015900008280CD0F448006800F00C000C282BD16F
:1015A000F148006800F48030B0F5803F24D120205D
:1015B000010391FAA1F1B1FA81F108430121B1EBE4
:1015C000601F03D1E8480838006802E0E6482C3084
:1015D000006820210A0392FAA2F2B2FA82F21143C1
:1015E00001F01F020121914008400028CBD0606823
:1015F000002843D10120F8BD00BF6068012808D150
:10160000D9480838006840F48030D7490839086064
:101610002DE0606868B9D4480838006820F480304C
:10162000D149083908600846006820F48020086025
:101630001DE0606805280DD1CB480838006840F4EB
:101640008020C949083908600846006840F48030A5
:1016500008600CE0C4480838006820F48030C249B3
:10166000083908600846006820F48020086000BF40
:10167000606860B3FFF7C4FB054607E052E0FFF780
:10168000BFFB401B642801D90320B4E720200103DD
:1016900091FAA1F1B1FA81F108430121B1EB601F88
:1016A00003D1B1480838006802E0AF482C30006828
:1016B00020210A0392FAA2F2B2FA82F2114301F057
:1016C0001F020121914008400028D8D02AE0FFF7EE
:1016D00097FB054606E0FFF793FB401B642801D902
:1016E000032088E72020010391FAA1F1B1FA81F1EA
:1016F00008430121B1EB601F03D19B480838006803
:1017000002E099482C30006820210A0392FAA2F2E4
:10171000B2FA82F2114301F01F0201219140084008
:101720000028D8D1207800F00200022845D18E4848
:10173000006800F00C0004280AD08B48006800F014
:101740000C000C283BD18848006800F48030A8BB0E
:101750002020022191FAA1F1B1FA81F1084301217F
:10176000B1EB601F03D180480838006802E07E4872
:101770002C3000682021022292FAA2F2B2FA82F200
:10178000114301F01F0201219140084020B1E0689F
:10179000012801D001202EE77348001F006820F4C3
:1017A000F8504FF4F85292FAA2F2B2FA82F221699A
:1017B000914008436C49091F08607DE0FFE7E0683D
:1017C000F0B3012090FAA0F1B1FA81F1674A42F832
:1017D0002100FFF715FB054606E0FFF711FB401B54
:1017E000022801D9032006E72020022191FAA1F165
:1017F000B1FA81F108430121B1EB601F03D15A48CE
:101800000838006802E058482C3000682021022285
:1018100092FAA2F2B2FA82F2114301F01F02012100
:10182000914008400028D8D04F48001F006820F49D
:10183000F8504FF4F85292FAA2F2B2FA82F200E0B3
:1018400006E02169914008434749091F086033E0D9
:101850000020012191FAA1F1B1FA81F1434A42F845
:101860002100FFF7CDFA054606E0FFF7C9FA401B55
:10187000022801D90320BEE62020022191FAA1F11D
:10188000B1FA81F108430121B1EB601F03D1364861
:101890000838006802E034482C3000682021022219
:1018A00092FAA2F2B2FA82F2114301F01F02012170
:1018B000914008400028D8D1207800F0100010286E
:1018C00073D12948006800F00C0000286ED1202058
:1018D000010191FAA1F1B1FA81F108430121B1EBC3
:1018E000601F03D120480838006802E01E482C30F1
:1018F000006820210A0192FAA2F2B2FA82F21143A0
:1019000001F01F0201219140084018B1A06908B9F7
:10191000012070E61449091F206A096801F460413A
:10192000884225D9206A01F0B5FB08B1012062E6A2
:101930000D48001F006820F46040216A08430A49EE
:10194000091F08600846006820F07F404FF07F4282
:1019500092FAA2F2B2FA82F2E16991400843024996
:10196000091F086023E000000838024000004742D9
:10197000FC48006820F46040216A0843F949086087
:101980000846006820F07F404FF07F4292FAA2F2B2
:10199000B2FA82F2E16991400843F2490860206A94
:1019A00001F078FB18B1012025E6A5E01FE04FF417
:1019B000604191FAA1F1B1FA81F1206AC840401C5E
:1019C00001218140C803E749091D096801F0F001C0
:1019D000F02292FAA2F2B2FA82F2D140E24A515CCB
:1019E000C840E24908600020FFF724FA84E0A069BB
:1019F000F0B30120010291FAA1F1B1FA81F1DC4AC0
:101A000042F82100FFF7FCF9054606E0FFF7F8F978
:101A1000401B022801D90320EDE52020010191FAA5
:101A2000A1F1B1FA81F108430121B1EB601F03D1AB
:101A3000CC48001F006802E0CA483030006820210E
:101A40000A0192FAA2F2B2FA82F2114301F01F02E5
:101A50000121914008400028D8D0C248006820F4F5
:101A60006040216A0843BF4908600846006800E0FA
:101A70000DE020F07F404FF07F4292FAA2F2B2FADE
:101A800082F2E16991400843B649086034E00020E1
:101A90004FF4807191FAA1F1B1FA81F1B44A42F8A0
:101AA0002100FFF7ADF9054606E0FFF7A9F9401B55
:101AB000022801D903209EE52020010191FAA1F11D
:101AC000B1FA81F108430121B1EB601F03D1A548B0
:101AD000001F006802E0A3483030006820210A019E
:101AE00092FAA2F2B2FA82F2114301F01F0201212E
:101AF000914008400028D8D1207800F0080008283C
:101B00006ED16069A8B3012090FAA0F1B1FA81F119
:101B1000974A02EB8101C1F88006FFF771F905468B
:101B200006E0FFF76DF9401B022801D9032062E5AA
:101B30004020022191FAA1F1B1FA81F1084301217B
:101B4000B1EB601F03D18748001F006802E08548A1
:101B5000303000684021022292FAA2F2B2FA82F2F8
:101B6000114301F01F020121914008400028D8D004
:101B700036E0FFE70021012090FAA0F0B0FA80F0F3
:101B80007B4A02EB8000C0F88016FFF739F9054662
:101B900006E0FFF735F9401B022801D903202AE5AA
:101BA0004020022191FAA1F1B1FA81F1084301210B
:101BB000B1EB601F03D16B48001F006802E0694869
:101BC000303000684021022292FAA2F2B2FA82F288
:101BD000114301F01F020121914008400028D8D193
:101BE000207800F00400042875D100265D482030DC
:101BF000006800F0805080B900BF5A48203000686B
:101C000040F080505749203108600846006800F0D5
:101C10008050009000BF00BF01265648006800F4C5
:101C20008070B0B95348006840F480705149086032
:101C3000FFF7E6F8054606E0FFF7E2F8401B6428E8
:101C400001D90320D7E44B48006800F480700028D5
:101C5000F2D000BFA068012808D1424830300068A7
:101C600040F480703F49303108602DE0A06868B9C9
:101C70003C483030006820F480703A4930310860C8
:101C80000846006820F4806008601DE0A068052810
:101C90000DD134483030006840F480603149303133
:101CA00008600846006840F4807008600CE02D4829
:101CB0003030006820F480702A49303108600846CE
:101CC000006820F48060086000BFA06870B3FFF770
:101CD00097F8054609E06AE0FFF792F8401B41F2E9
:101CE0008831884201D9032085E44020C10091FA5F
:101CF000A1F1B1FA81F108430121B1EB601F03D1D9
:101D00001848001F006802E0164830300068402183
:101D1000CA0092FAA2F2B2FA82F2114301F01F0253
:101D20000121914008400028D6D035E0FFF768F83F
:101D3000054608E0FFF764F8401B41F2883188420D
:101D400001D9032057E44020C10091FAA1F1B1FA72
:101D500081F108430121B1EB601F0DD10148001F43
:101D600000680BE004380240857200082C00002057
:101D700000004742007000406C4800684021CA00E3
:101D800092FAA2F2B2FA82F2114301F01F0201218B
:101D9000914008400028CDD1012E07D1634810386A
:101DA000006820F0805061491039086000BF606A07
:101DB000F0B35E482C38006800F00C000C287AD094
:101DC000606A022879D100204FF0807191FAA1F168
:101DD000B1FA81F1564A42F82100FFF711F80546A1
:101DE00006E0FFF70DF8401B022801D9032002E4AA
:101DF0002020010591FAA1F1B1FA81F108430121F6
:101E0000B1EB601F03D149483438006801E047480E
:101E1000006820210A0592FAA2F2B2FA82F2114376
:101E200001F01F020121914008400028D9D100E0B3
:101E30007AE0D4E90A010843216B08433B492C3975
:101E4000096821F47D01084338492C3908600120D4
:101E5000010691FAA1F1B1FA81F1354A42F8210067
:101E6000FEF7CEFF054606E0FEF7CAFF401B02283C
:101E700001D9032009E42020010591FAA1F1B1FA6A
:101E800081F108430121B1EB601F03D127483438A9
:101E9000006801E02548006820210A0592FAA2F2B4
:101EA000B2FA82F2114301F01F0201219140084071
:101EB0000028D9D038E035E0FFE700214FF08070EE
:101EC00090FAA0F0B0FA80F0194A42F82010FEF71C
:101ED00097FF054606E0FEF793FF401B022801D955
:101EE000032058E42020010591FAA1F1B1FA81F113
:101EF00008430121B1EB601F03D10C48343800685E
:101F000001E00A48006820210A0592FAA2F2B2FA1A
:101F100082F2114301F01F02012191400840002884
:101F2000D9D101E0012036E4002034E43438024005
:101F300000004742704770B50446002500BF207F6F
:101F4000012801D1022070BD0120207700BF0220AE
:101F5000607700BFCA202168486253202168486228
:101F600000BF2068806820F4806021688860206855
:101F7000806820F4804021688860FEF741FF0546B4
:101F800012E0FEF73DFF401BB0F57A7F0CD900BF91
:101F9000FF202168486200BF0320607700BF002057
:101FA000207700BF0320CEE72068C068C0F3800020
:101FB0000028E6D000BFFF202168486200BF012052
:101FC000607700BF0020207700BF00BFBBE77047ED
:101FD00010B5044620688068C0F3003078B12068EE
:101FE000C068C0F3002050B12046FFF7F0FF206822
:101FF000C06800F0800060F4C0702168C86020688C
:102000008068C0F3403078B12068C068C0F34020D9
:1020100050B12046FFF78EFF2068C06800F08000B6
:1020200060F420702168C8604FF4003002490860F5
:102030000120607710BD00001404014070B5044613
:102040000D46002600BF207F012801D1022070BD6F
:102050000120207700BF0220607700BFCA202168DE
:10206000486253202168486200BFB5F5807F29D1BE
:102070002068806820F4807021688860206880680B
:1020800020F4805021688860FEF7BAFE064612E010
:10209000FEF7B6FE801BB0F57A7F0CD900BFFF209B
:1020A0002168486200BF0320607700BF00202077CE
:1020B00000BF0320CBE72068C06800F001000028C3
:1020C000E6D028E02068806820F4007021688860ED
:1020D0002068806820F4005021688860FEF790FE38
:1020E000064612E0FEF78CFE801BB0F57A7F0CD915
:1020F00000BFFF202168486200BF0320607700BF57
:102100000020207700BF0320A1E72068C068C0F34B
:1021100040000028E6D000BFFF202168486200BFD1
:102120000120607700BF0020207700BF00BF8EE74E
:102130002DE9F04106460C46174698460025B7F5AE
:10214000807F05D14FF48070A0613068C56904E0DC
:102150004FF40070A0613068056AC5F30540207037
:10216000C5F30620607005F07F00A07005F48000C4
:10217000000CE070C5F30560207505F0804020611B
:1021800005F08030E060B8F1000F0FD1207800F04A
:10219000EDFF2070607800F0E9FF6070A07800F03B
:1021A000E5FFA070207D00F0E1FF20750020BDE874
:1021B000F081000070B505460B46164600242868DD
:1021C00040680E4900EA0104200CD870C4F30420D2
:1021D000587004F03F009870C4F3423018705EB934
:1021E000D87800F0C3FFD870587800F0BFFF58705F
:1021F000987800F0BBFF9870002070BD3FFFFF0093
:102200002DE9F04106460C46174600253068006867
:102210000F4900EA0105C5F305402070C5F306200B
:10222000607005F07F00A07005F48000000CE07085
:102230005FB9207800F09AFF2070607800F096FF78
:102240006070A07800F092FFA0700020BDE8F081DF
:102250007F7F7F0010B504460CB9012010BD607F60
:1022600020B900202077204600F04EF80220607749
:1022700000BFCA202168486253202168486200BF1D
:10228000204600F08BFF40B100BFFF20216848626C
:1022900000BF042060770120E0E7206880681949CA
:1022A00008402168886021696068084361690843C3
:1022B000216889680843216888602168E0680861AE
:1022C00020680169208941EA00402168086120688E
:1022D000C06820F080002168C8602068006C20F48D
:1022E0008020216808642068006CA1690843216887
:1022F000086400BFFF202168486200BF01206077AA
:102300000020ABE7BFFF8FFF704700002DE9F047CB
:1023100004460D4616460027B84600BF207F012818
:1023200002D10220BDE8F0870120207700BF022003
:1023300060774EBB2068806800F0400000B102E08A
:102340000020E87000BF286900B900E000BF2878CD
:1023500000F017FF4FEA0049687800F012FF49EAE1
:102360000029A87800F00DFF49EA0009E87849EA59
:102370000049287D00F005FF49EA0060296908430B
:10238000E96840EA01082AE02068806800F040001F
:1023900020B1287800F0EAFE804602E00020E870D4
:1023A00000BF286920B9287D00F0E0FE804604E0E7
:1023B000287D00F0DBFE804600BF287800046978A5
:1023C00040EA0120A9780843E97840EA0140297DE4
:1023D00040EA016029690843E96840EA010800BF52
:1023E000CA202168486253202168486200BFA8695A
:1023F000B0F5807F3AD12068806820F48070216831
:1024000088602068C06800F0800060F4C0702168B7
:10241000C860FEF7F5FC074612E0FEF7F1FCC01BB2
:10242000B0F57A7F0CD900BFFF202168486200BF59
:102430000320607700BF0020207700BF032071E7F2
:102440002068C06800F001000028E6D02068C0F8CD
:102450001C802068806840F4807021688860206853
:10246000806840F480502168886039E02068806886
:1024700020F40070216888602068C06800F0800047
:1024800060F420702168C860FEF7BAFC074612E0CD
:10249000FEF7B6FCC01BB0F57A7F0CD900BFFF2059
:1024A0002168486200BF0320607700BF00202077CA
:1024B00000BF032036E72068C068C0F34000002852
:1024C000E6D02068C0F820802068806840F4007062
:1024D000216888602068806840F400502168886026
:1024E0000D48006840F400300B4908600A48083085
:1024F000006840F4003008490831086000BFFF2040
:102500002168486200BF0120607700BF002020776B
:1025100000BF00BF06E70000000401402DE9F041C4
:1025200004460D461646002700BF207F012802D131
:102530000220BDE8F0810120207700BF02206077F3
:102540004EB9687800F01000102804D1687800F0C7
:10255000EF000A30687086B9E87800F012FE0304D4
:10256000687800F00EFE43EA0023A87800F009FE28
:102570000343287843EA403711E0687800F0F6FD1D
:102580000746A87800F0F2FD0746E878000469786D
:1025900040EA0120A9780843297840EA413700BF82
:1025A000CA202168486253202168486200BF204643
:1025B00000F0F4FD60B100BFFF202168486200BF59
:1025C0000420607700BF0020207700BF0120B0E723
:1025D00013483840216848602068C06820F08000B7
:1025E0002168C860204600F0B3F860B100BFFF204A
:1025F0002168486200BF0420607700BF0020207778
:1026000000BF012095E700BFFF202168486200BF9E
:102610000120607700BF0020207700BF00BF88E75F
:102620003FFFFF002DE9F04104460D461646002706
:1026300000BF207F012802D10220BDE8F0810120E7
:10264000207700BF02206077CEB92068806800F054
:10265000400000B102E00020E87000BF287800F0E0
:1026600090FD0304687800F08CFD43EA0023A8780D
:1026700000F087FD0343E87843EA004716E020684E
:10268000806800F0400020B1287800F06FFD074618
:1026900002E00020E87000BF28780004697840EA72
:1026A0000120A9780843E97840EA014700BFCA2021
:1026B0002168486253202168486200BF204600F02C
:1026C0006DFD60B100BFFF202168486200BF04209B
:1026D000607700BF0020207700BF0120ADE71B48D6
:1026E0003840216808602068806820F480202168D4
:1026F0008860D5E901010843216889680843216899
:1027000088602068C06820F080002168C86020468A
:1027100000F01EF860B100BFFF202168486200BFD2
:102720000420607700BF0020207700BF012084E7ED
:1027300000BFFF202168486200BF0120607700BF12
:102740000020207700BF00BF77E700007F7F7F0079
:1027500070B5044600252068C06820F0A0002168FC
:10276000C860FEF74DFB054607E0FEF749FB401B3E
:10277000B0F57A7F01D9032070BD2068C06800F0F1
:1027800020000028F1D00020F6E710B504460CB96F
:10279000012010BD2068006820F04000216808601A
:1027A000204600F048F80020606584F8510000BF22
:1027B00084F8500000BF00BFEBE710B504460CB929
:1027C000012010BD94F8510028B9002084F8500071
:1027D000204600F031F8022084F85100206800689B
:1027E00020F0400021680860D4E901010843E16855
:1027F00008432169084361690843218B01F4007192
:102800000843E1690843216A0843A16A0843216833
:1028100008600421A06901EA1040616A0843216848
:1028200048602168E06A086100206065012084F842
:1028300051000020C5E770477047042808D14FF0C9
:10284000E021096941F004014FF0E022116107E045
:102850004FF0E021096921F004014FF0E0221161FD
:102860007047704770B504462546681EB0F1807FFA
:1028700001D301200FE0681E4FF0E02148610F21D5
:102880004FF0FF3000F0ECF900204FF0E0218861BC
:1028900007200861002070BD10B5FFF7E2FF10BDF2
:1028A000704710B5044620680069C0F34000D8B1F5
:1028B0002068C068C0F34000B0B16FF0020021682A
:1028C0000861012020752068806900F0030018B1BC
:1028D0002046FFF7E5FF05E0204600F08BF8204694
:1028E00000F089F80020207520680069C0F380009E
:1028F000D8B12068C068C0F38000B0B16FF00400A8
:1029000021680861022020752068806900F4407009
:1029100018B12046FFF7C4FF05E0204600F06AF832
:10292000204600F068F80020207520680069C0F398
:10293000C000D8B12068C068C0F3C000B0B16FF06B
:10294000080021680861042020752068C06900F033
:10295000030018B12046FFF7A3FF05E0204600F072
:1029600049F8204600F047F80020207520680069EB
:10297000C0F30010D8B12068C068C0F30010B0B137
:102980006FF0100021680861082020752068C06978
:1029900000F4407018B12046FFF782FF05E02046A2
:1029A00000F028F8204600F026F800202075206866
:1029B000006900F0010058B12068C06800F0010013
:1029C00030B16FF0010021680861204600F014F872
:1029D00020680069C0F3801058B12068C068C0F357
:1029E000801030B16FF0400021680861204600F08F
:1029F00041F810BD704770470168B1F1804F2AD08F
:102A0000154A0168914219D114490988491C134A91
:102A1000118013490978F1B112490978491C114A0A
:102A2000117011460978032915DD00210C4A117037
:102A30000C4A117001210C4A11700CE00B4A01681C
:102A4000914208D10A490978FF2904DA084909782E
:102A5000491C074A11707047000400401E00002006
:102A60002700002021000020260000200008004050
:102A700020000020704710B504460CB9012010BD9D
:102A8000A06900B100E000BF94F8390028B9002027
:102A900084F83800204600F025F8022084F8390038
:102AA0002068C06820F400502168C860204603F008
:102AB00015FA2068006920F49040216808612068B8
:102AC000406920F02A00216848612068C06840F40D
:102AD00000502168C8600020E063012084F83900BC
:102AE0000020CCE7704730B50346002493F8394006
:102AF000012C01D0122C37D101B10AB9012030BD0F
:102B000000BF93F83800012801D10220F7E7012027
:102B100083F8380000BF99629A85DA850020D8636F
:102B200093F83900122803D1322083F8390002E0EB
:102B3000222083F8390000BF002083F8380000BF4E
:102B40001868C06840F480701D68E86018684069C3
:102B500040F001001D6868611868C06840F02000FE
:102B60001D68E8600020CAE70220C8E700BFFEE752
:102B70007047000010B50848084908600848886098
:102B8000084848600848C860084808610848016863
:102B90000248884710BD0000193000085C00002082
:102BA0009D2F00083130000801300008E92F00088F
:102BB000207200082DE9F04105460E4617461C46D6
:102BC000FFF7D8FF3A463146284600F009F8034897
:102BD000416B20468847BDE8F08100002072000864
:102BE000F0B58BB005460E4614461848C168284615
:102BF0008847002005900690CDE9070401200021B8
:102C000008220323CDE90132CDE90310072000900B
:102C10000E480B460A463146C7690120B8470120D5
:102C20000021069107910523CDE90810CDE9023175
:102C3000CDE904100820CDE9001004480323072241
:102C400087690120B8470BB0F0BD00002072000872
:102C500002480068C0F30220704700000CED00E05D
:102C600010B5002807DA0A07140E054A00F00F0312
:102C70001B1FD45403E00A07130E024A135410BD5D
:102C800018ED00E000E400E070B5002419E004F164
:102C9000B001C8B2002100F03DF90021022000F08F
:102CA00039F90021102000F035F9002505E0012157
:102CB000002000F02FF9681CC5B2802DF7DB601CE6
:102CC000C4B2082CE3DB70BD1CB5012000900023CA
:102CD00002461C2101904C48FDF7B0FD01200090F8
:102CE000002302461E2101904848FDF7A7FD012060
:102CF0000090002302461D2101904548FDF79EFDEE
:102D000001200090002302461F2101904148FDF759
:102D100095FD0021AE2000F0FDF80021022000F01A
:102D2000F9F80021102000F0F5F80021402000F013
:102D3000F1F80021812000F0EDF80021CF2000F013
:102D4000E9F80021A12000F0E5F80021C82000F0FA
:102D5000E1F80021A62000F0DDF80021A82000F015
:102D6000D9F800213F2000F0D5F80021D32000F051
:102D7000D1F80021084600F0CDF80021D52000F060
:102D8000C9F80021802000F0C5F80021D92000F00A
:102D9000C1F80021F12000F0BDF80021DA2000F098
:102DA000B9F80021122000F0B5F80021DB2000F076
:102DB000B1F80021402000F0ADF80021202000F003
:102DC000A9F80021022000F0A5F800218D2000F0D4
:102DD000A1F80021142000F09DF80021A42000F0AB
:102DE00099F80021A62000F095F80021AF2000F00E
:102DF00091F80021AF2000F08DF8FFF745FF00218A
:102E0000084600F01BF81CBD4404002050040020BC
:102E10005C0400206804002010B5FFF735FF03A212
:102E20000021084600F05AF810BD0000204E6577DA
:102E30006C616E64204564750000000070B5044646
:102E40000D4605F1B001C8B2002100F063F8102171
:102E500041EA1410002100F05DF804F00F0141F088
:102E60000100002100F056F870BD00002DE9F0418E
:102E700007460E46904600250024A8F12000C5B262
:102E80007F2F02DD0027B01CC6B231463846FFF75F
:102E9000D5FF002408E004EB05110F4A505C012126
:102EA00000F038F8601CC4B2082CF4DB701CC1B20E
:102EB0003846FFF7C3FF002409E004EB0511083191
:102EC000054A505C012100F025F8601CC4B2082CB2
:102ED000F3DBBDE8F0810000C57400082DE9F04186
:102EE00004460F46154600260EE0AA5D39462046E8
:102EF000FFF7BCFF04F10800C4B2782C02DD002407
:102F0000B81CC7B2701CC6B2A85D0028EDD1BDE8E0
:102F1000F081000070B504460E4626B10121184824
:102F2000FDF721FE03E000211548FDF71CFE0021FE
:102F30001448FDF718FE002517E000211248FDF7A0
:102F400012FE04F0800020B101211048FDF70BFEB5
:102F500003E000210D48FDF706FE01210A48FDF7B8
:102F600002FE6006040E681CC5B2082DE5DB0121D7
:102F70000448FDF7F8FD01210148FDF7F4FD70BD9F
:102F800050040020440400205C0400206804002059
:102F90000120014908707047050000202DE9F0412B
:102FA00004460D4616461F460A49C86A80470A4825
:102FB0000580028821460948FDF7CAF970B2084920
:102FC0000870084807700348416B4FF47A708847CF
:102FD000BDE8F08120720008000000207800002089
:102FE000020000200300002010B50449C86A804791
:102FF0000248416B4FF47A70884710BD2072000878
:1030000010B50449C86A80470248416B4FF47A7092
:10301000884710BD2072000810B50449C86A80476F
:103020000248416B4FF47A70884710BD2072000847
:1030300010B50449C86A80470248416B4FF47A7062
:10304000884710BD2072000810B5FDF7DFFAFDF7C4
:1030500009FBFFF739FE4FF4E13003F01DF9FFF7EC
:1030600013FEFFF7D9FE05A0FDF7B6F84FF47A730B
:103070001A460E210648FFF79DFD10BDD0C2B4F3DD
:10308000C2BDBDCCD3FD204C6F5261200D0A0000A3
:1030900020A2D31918B50246002300212548006854
:1030A00000F0F00050BB23481C30006800F0805056
:1030B00020B12148006800F4C05318E000BF1D484B
:1030C0001C30006840F080501A4C1C3420602046B0
:1030D000006800F08050009000BF00BF16480068F4
:1030E00000F4C0532046006820F080502060B3F503
:1030F000C05F03D1B2F5404F00D1012100BF0129CB
:1031000005D10E48006840F004000C4C20600B48CC
:10311000006820F001000843084C206000BF2046F2
:10312000006800F00100884201D0012018BD002095
:10313000FCE700000838024000700040003C0240FC
:1031400010B50948FEF744FF4FF480710648FEF7BA
:1031500075FF00F07BFB00F08DF90020FDF700FA11
:1031600002F080FD10BD00003C020020014600BFBF
:10317000080900EB8000420001F00F001044C0B2CB
:1031800070470146002203E0521CA1F10A00C1B2BF
:103190000A29F9DA100741EA1060704770B5044651
:1031A00000252068C06800F04000A0B9681E2168B2
:1031B000C860FDF725FE054607E0FDF721FE401B30
:1031C000B0F57A7F01D9032070BD2068C06800F097
:1031D00040000028F1D00020F6E70000632802D16B
:1031E00001210B4A11700A49097801290ED10949B8
:1031F00009880144074A1288914207D10021044AF4
:103200001170044909886431024A11807047000036
:103210000E0000200C0000200FB42DE9F04F8FB0FD
:103220008346894614221AA90AA8FDF7D6F89DF804
:1032300072A01AA8477A9DF87080067900BF00BF77
:1032400000BF8048814501D2484600E07D48814664
:10325000B9F1000F01D14FF00109484603F000FD1C
:10326000794A7A4BCDE9020103F04AFDCDE9040128
:1032700003F02CFA04460D46484603F0F1FC724A6E
:10328000724BCDE9040103F03BFDCDE90801204676
:103290002946DDE9082303F0CDFECDE90601002231
:1032A0006B4BDDE9060103F02BFDCDE90201694816
:1032B000006803F0BEFCCDE90001DDE9022303F064
:1032C0004FFACDE9040103F057FC62490860084653
:1032D0000068B0F5F47F0CDB08460068A0F5F470D8
:1032E000086000225C4B2046294603F039FA044668
:1032F0000D4609E00022594B2046294603F09AFE6C
:1033000004460D46701C86B20022544B20462946C6
:1033100003F0F4FDEED90BE00022514B2046294684
:1033200003F088FE04460D4608F101001FFA80F8FC
:1033300000224B4B2046294603F0E0FDECD909E082
:103340000022484B2046294603F074FE04460D46F1
:10335000781C87B20022434B2046294603F0CEFD5D
:10336000EED9504603F07CFC22462B46CDE9020103
:1033700003F0F6F9CDE9040103F02EFC1FFA80FA00
:1033800005E0AAF13C001FFA80FA781C87B2BAF176
:103390003C0FF6DA06E0A7F13C0087B208F1010025
:1033A0001FFA80F83C2FF6DA05E0A8F118001FFAA2
:1033B00080F8701C86B2B8F1180FF6DA1AA94979AC
:1033C00059B11AA94979284A12888818C11700EBFF
:1033D00091718910A0EB810181B91AA8C078401EB3
:1033E0002249085CB04219DA1AA8C078401E085C6D
:1033F00096FBF0F100FB116086B20FE01AA8C078CE
:10340000401E1B49085CB04208DA1AA8C078401E6A
:10341000085C96FBF0F100FB116086B28DF832A0DB
:103420000AA8477208F0FF008DF830000AA806715C
:1034300014220AA95846FCF7D0FF0FB0BDE8F00FE0
:103440005DF814FB42061200FCA9F1D24D62004067
:1034500000408F40180000200000F03F0018F540A9
:103460000020AC4000004E400C0000201472000808
:10347000087200082DE9F04F91B04FF0000AD346D2
:103480002148007800283CD1684600F04FF914220A
:10349000694605A8FCF7A1FF00234FF480720AA932
:1034A0001A48FEF745FE9DF82A009DF829103C2297
:1034B00002FB01009DF828104FF4616202FB010A33
:1034C0009DF81E109DF81D003C2202FB00109DF887
:1034D0001C104FF4616202FB010BABEB0A0003F01E
:1034E000BFFB804600220A4B03F00AFC064602F0AE
:1034F000F3FF044603F070FB06490860012002490F
:10350000087011B0BDE8F08F130000203C020020CD
:103510000040DF3F140000202DE9F0478AB0064646
:1035200000BF00210C460D4646B9684600F0FEF883
:103530001422694605A8FCF750FF04E01422314626
:1035400005A8FCF74AFF00271AE037B1F91707EB87
:1035500091718910A7EB810141B90022494B2046A6
:10356000294603F0FDF804460D4607E00022464BCD
:103570002046294603F0F4F804460D46781C07B2AD
:103580009DF81900BDF814100844B842DDDC9DF820
:10359000191059B19DF81910BDF814208818C117D9
:1035A00000EB91718910A0EB8101D9B94FF0000AAD
:1035B00012E0364911F80A10354A01FB02F003F017
:1035C0004FFB074622462B4603F0CAF804460D4639
:1035D0000AF1010000F0FF0A9DF81700401E504557
:1035E000E7DC1AE04FF0000A12E02A4911F80A104D
:1035F000274A01FB02F003F033FB074622462B4625
:1036000003F0AEF804460D460AF1010000F0FF0A8F
:103610009DF81700401E5045E7DC9DF81E209DF8E0
:103620001D10C1EB011102EB81019DF81C20C2EBC2
:103630004213C3EB022201EB02129DF8181040F274
:10364000A323594302EBC11003F00AFB07462246AD
:103650002B4603F085F804460D4600220E4B20460B
:10366000294603F04DFB04460D462046294603F04B
:103670002DF8074603F0B0FA814648460AB0BDE887
:10368000F087000050287E4138137E4114720008F4
:1036900080510100087200080040DF3F10B50D485E
:1036A0000078A8B90C480078012811D1FCF764FF14
:1036B000FDF74CFC0948006840F004000749086029
:1036C000FDF738FCFDF72AFC01210846FDF74AFC0E
:1036D00010BD00001100002010000020007000400C
:1036E0000F490968884209D90E490978012905D18D
:1036F00000210C4A11700A490968401A08490968F2
:1037000088420BD9322803D20021074A117005E004
:103710000121054A117002490968401A70470000EA
:10372000140000200F0000201000002010B586B00B
:103730000446002203A90C48FEF762FD00220DF1A9
:1037400006010948FEF736FD08480088ADF8040078
:103750009DF80900FFF742FD142201A92046FCF75D
:103760003CFE06B010BD00003C0200200C00002012
:1037700070B5002400250020FFF7CEFE0446064861
:10378000FFF7CAFE0546AC4203D2C5F1FF30204424
:1037900070BD601BFCE700002802002000B585B06A
:1037A00026480078002846D10121880590FAA0F02B
:1037B000B0FA80F0224A02EB8000C0F8801621485F
:1037C000214908600020486003211F488160C160D2
:1037D0000021016141618161FEF73CFD00218DF80E
:1037E000051001218DF803108DF8041006208DF8C6
:1037F000020000220DF102011348FEF78FFE0020A7
:103800008DF8080000218DF809108DF80A108DF848
:103810000B1003910491002202A90B48FEF702FF4E
:10382000002204212920FDF727FB2920FDF717FBA3
:1038300001200249087005B000BD00001200002000
:1038400000004742002800403C02002010B50E480E
:10385000406800F0010030B10B48006840F00400FF
:103860000949086002E0012008490870084800681A
:1038700000F00C00042804D00548006800F00C009B
:1038800008B9FCF7C3FE10BD007000400F00002017
:103890000838024010B50446204600F001F810BD7B
:1038A00010B59AB004464FF480712148FEF7C6FB6C
:1038B0001F48FEF740FB04A8FFF738FF142204A9B5
:1038C00015A8FCF78AFD142215A91A48FCF785FDF6
:1038D00017A807C88DE80700214604A8DDE91523CD
:1038E000FFF79AFC142204A910A8FCF776FD4FF408
:1038F00080700F9000200D900C908DF8270010A87C
:10390000807A8DF8260010A8407A8DF825009DF861
:1039100048008DF8240010A800798DF838000022A6
:1039200009A90348FEF7F2FC00B100BF1AB010BDB0
:103930003C020020280200202DE9F05F092000F061
:10394000B3FE8246062000F0AFFE4FEA004B072090
:1039500000F0AAFE4BEA002B082000F0A5FE4BEA7F
:103960000009484603F07CF9074600221E4B03F08D
:10397000C7F9054603F030F904460021092001F09B
:1039800027FE3B2000F090FE00F0BF0040F0400515
:1039900029463B2001F01CFE00BF3B2000F084FEC6
:1039A00000F020002028F8D0104800F09BFF3B20BA
:1039B00000F07AFE00F0BF0040F0400529463B20B1
:1039C00001F006FE00BF3B2000F06EFE00F020007C
:1039D0002028F8D05146092001F0FAFD204600F0D9
:1039E00081FFBDE8F09F000080844E4000A1BC3301
:1039F00070477047014601207047000001460348A8
:103A0000814201D2802070470020FCE740DD4A1F40
:103A1000014890F8DC007047740500202DE9F34F51
:103A200093B000201290139810B1012870D170E06B
:103A30009749D1F8F40003F013F9CDE90C0114987B
:103A400003F00EF9CDE90601302000F02DFE20F044
:103A5000F90010B100208F4901E000200146CDE9B6
:103A60000401272000F020FE20F0F801491C8848BE
:103A7000B0F8F8000844019003F0DBF8CDE902014A
:103A8000834890F8FA00012802D10020034601E0A3
:103A90000020804B0246CDE90003DDE9020102F07F
:103AA0005FFE8046DDE9042302F05AFE0646DDE9AA
:103AB000062302F055FECDE90801754890F8FC0098
:103AC000012803D100204FF0804101E00020014691
:103AD000064632460B46DDE9080102F041FE0022AF
:103AE0006D4BCDE90A0103F00BF98246DDE90C23A9
:103AF00002F0EAFE0022694BCDE90E0103F000F965
:103B0000CDE9100102F0E2FD044603F065F81290E1
:103B1000B9E00020044605465D48D0F81C0107289E
:103B200004D0082805D0092809D105E000245C4DFF
:103B300005E000245B4D02E000245B4D00BF00BFA8
:103B4000534991F82021012101FA02F003F071F8A4
:103B5000064632460B462046294602F0B5FECDE920
:103B6000100100204B49DDE9102302F0ADFECDE944
:103B70000E014749B1F8260103F072F8064600220B
:103B80004A4B02F0EDFD8046DDE90E2303F0B8F864
:103B9000CDE90C013E4991F82511081D03F049F8C3
:103BA000CDE902013A49D1F8202191F824110029E8
:103BB00001DD022100E00021511A880003F050F8D5
:103BC00006460F461499CA003149D1F82011042342
:103BD00003FB11221C322E4991F82A11102303FBFA
:103BE00001222B4991F8281109B1142100E000218C
:103BF000501A03F035F8804632463B4602F064FE28
:103C0000CDE9000102F068FC8246DDE9022303F001
:103C100077F8CDE90A0100221346DDE90A0103F035
:103C20006DF902D2DDE90A0101E0002001460646F5
:103C300032460B460020184902F092FDCDE90801FA
:103C4000DDE90E23DDE9080103F05AF8CDE90601AC
:103C5000DDE90623DDE90C0102F082FDCDE9040176
:103C600000220E4BDDE9040103F04AF80646104A33
:103C7000104B02F075FD804602F09CFC824602F07B
:103C8000ABFF129000BF00BF129815B0BDE8F08FD7
:103C9000740500200000F03F0000204000408F40ED
:103CA0008084FE4080840E4180841E4100001140CB
:103CB0002B8716D9CEF7EF3F70B505461B48056038
:103CC0001B491C4801F07AFF19491B4801F076FF97
:103CD00017491A4801F072FF00F048FDFFF72CFE6B
:103CE000002000F091FE164800F076F8002412E063
:103CF00004EB4401134A505C00F036FE04EB44022E
:103D0000104B1A44917804EB44021A44507801F0A5
:103D10005FFC601CC4B2102CEAD3002000F024FE2B
:103D20000020094981F8DC0070BD0000340000204B
:103D30005D450008B4060020C8060020DC0600200F
:103D400038000020A8800008740500201CB5012060
:103D500000210B460246CDE9001004210B48FCF778
:103D60006DFD00200090034602461B21019007488C
:103D7000C438FCF763FD00200090034602461A2178
:103D800001900248B838FCF759FD1CBD44060020DC
:103D90001CB50120009000230246042101900D482B
:103DA000FCF74CFD0020012103460246CDE900103E
:103DB0001B210848C438FCF741FD002001210346BF
:103DC0000246CDE900101A210248B838FCF736FD4A
:103DD0001CBD00004406002010B50446032201214A
:103DE00005482368FCF7ABFE0322012102480C3092
:103DF0006368FCF7A4FE10BD800500202DE9F041AA
:103E000006460C4615460027304600F0ADFD20461C
:103E100000F068FD052000F0F7FD0120FCF795FC9F
:103E2000304600F079FC074601F09CF9AF4202DD14
:103E30000020BDE8F0810120FBE70000F8B500207C
:103E40000090D84890F8DC00012802D002287DD1EB
:103E500084E1D44890F8DD0010B1012877D1D4E096
:103E6000D04890F8FC00012842D13F2000F01CFC13
:103E700000909DF8000000F00200022838D00B21CD
:103E80003E2001F0A5FB10213F2001F0A1FBC64818
:103E900001F0AEFFC34890F8FE0038B9C34801F006
:103EA000A7FF0020BF4981F8DC000BE00D2000F0E7
:103EB000FBFB40F0400421460D2001F089FBBB488C
:103EC00001F052FFBA48006838B1B948006800698B
:103ED00018B1B7490968086980470021B14880F8DE
:103EE000081180F80911A0F81411A0F8121133E19B
:103EF000AC48B0F8120158BBAA48B0F8140138BB5E
:103F0000A84890F8FA0020B90121AA4800F0FAFB6D
:103F100006E0322000F0C8FB0146A248A0F81211CA
:103F2000A04A92F8123192F814219A1AD1B29D4AFD
:103F3000B2F81421A04BD01800F0E4FB9948B0F877
:103F40001211B0F81401091A964802E027E102E1C3
:103F500007E0B0F81401084481B29248A0F81411A7
:103F60001BE0904A92F8123192F814219A1AD1B2B9
:103F70008C4AB2F81421904BD01800F0C3FB89484A
:103F8000B0F81211B0F81401091A8648B0F81401FB
:103F9000084481B28348A0F81411834801F028FF37
:103FA000804890F8FE0038B900207E4981F8DC0096
:103FB0007E4801F01DFF0BE00D2000F075FB40F086
:103FC000400421460D2001F003FB784801F0CCFEAF
:103FD0007748006870B176480068806850B17148D1
:103FE00090F90A21B0F81211714800680023846822
:103FF0007148A04700216B4880F8081180F809112A
:10400000A0F81411A0F81211A6E0002540211220FA
:1040100001F0DEFA122000F047FB00909DF800004E
:1040200000F0200020281AD12021122001F0D0FA1F
:104030005C4890F82E0118B900205A4981F8DC003C
:10404000594801F0D5FE5A48006838B15848006810
:10405000006918B156490968086980477CE0192051
:1040600000F022FB41B24F4880F8381190F8380137
:1040700000F0800040B14B4890F83801C043401C2C
:10408000C0F385056D4204E0464890F83801C0F35E
:1040900085051A2000F008FB0446002D19DA414876
:1040A000D0F8E0004549884209D9A4F19D0000EB11
:1040B0002410284401B23B48A0F83A1120E0A4F1B2
:1040C000A40000EB2410284401B23648A0F83A11AD
:1040D00016E03448D0F8E0003849884208D9A4F105
:1040E0009D0000EB241001B22E48A0F83A1107E021
:1040F000A4F1A40000EB241001B22A48A0F83A1160
:10410000132000F0D1FA0146264880F83C1190F8BF
:104110003C11294800F0F6FA224890F82E0118B90F
:104120000020204981F8DC001F4801F061FE204892
:10413000006878B11E480068806858B1194890F945
:104140003831B0F93A2190F83C1119480068866876
:104150001948B04700E000BF00BF21E0184801F057
:1041600047FE104890F8DD0038B1012804D108213D
:10417000122001F02DFA00BF00BF0020094981F88C
:10418000DC000B48006838B109480068006818B1C5
:10419000074909680868804700BF00BF00E000BF0A
:1041A00000BFF8BD74050020C8060020DC06002012
:1041B00034000020860600207404002040DD4A1FE1
:1041C000B406002010B5644890F8DC00012802D045
:1041D000022872D176E0604890F8DD0010B1012825
:1041E0006DD153E05C48B0F8120198B95A48B0F864
:1041F000140178B9584890F8FA0020B901215748BD
:1042000000F080FA06E0322000F04EFA01465248F3
:10421000A0F812115048B0F81211B0F81401091AA0
:104220004D4890F81601814213DD4B4A92F8161161
:10423000B2F814214A4BD01800F064FA4648B0F89E
:10424000141190F81601084481B24348A0F81411E3
:104250001BE0414A92F8123192F814219A1AD1B215
:104260003D4AB2F814213E4BD01800F04BFA3A48C0
:10427000B0F81211B0F81401091A3748B0F8140157
:10428000084481B23448A0F8141119E0354801F00F
:10429000AFFD8021122001F09BF900202E4981F80A
:1042A000DC003148006838B12F480068C06818B198
:1042B0002D490968C868804702E04AE0FFE700BF6F
:1042C00000BF47E0244890F8DD0010B101283DD13F
:1042D0003BE02148B0F81211B0F81401091A1E4849
:1042E00090F81701814213DD1B4A92F81711B2F8BA
:1042F00014211B4BD01801F095F91748B0F8141190
:1043000090F81701084481B21348A0F814111BE07B
:10431000114A92F8123192F814219A1AD1B20E4A27
:10432000B2F814210E4BD01801F07CF90A48B0F80D
:104330001211B0F81401091A0748B0F81401084422
:1043400081B20548A0F8141101E000E000BF00BFF1
:1043500000E000BF00BF10BD7405002086060020ED
:1043600074040020C8060020340000202DE9FC471A
:104370004F4890F8DC00012802D0022873D16BE08E
:104380004B4890F8DD0010B1012862D146E0484862
:10439000006C18B90121464880F80811444890F88B
:1043A0000801012839D1424890F80901A8BB4148C9
:1043B00001F01EFD01213E4880F80911112000F096
:1043C00073F94010404241B2394880F80A111C206C
:1043D00000F06AF982461B2000F066F94AEA0029DB
:1043E000484602F026FC074602F0C6FB044602F0EF
:1043F00020FC05460022304B02F082FCCDE9000192
:1044000002F0BAFB01462A48C0F80C110C2000F05B
:104410004BF94109264880F810111BE0244890F818
:104420002B01012814D10221122001F0D1F82348D8
:10443000006868B121480068406948B11C2000F05C
:1044400033F900F03F041D48006841692046884761
:1044500000E000BF00BF27E0154890F8DD0018B16C
:1044600001281DD101E01EE01BE0114890F82B014E
:10447000012814D10221122001F0AAF80F48006887
:1044800068B10E480068406948B11C2000F00CF982
:1044900000F03F040948006841692046884700E071
:1044A00000BF00BF00E000BF00BFBDE8FC87000008
:1044B00074050020DC06002080844E40340000207B
:1044C00010B5194890F8DD0010B1012829D100E09D
:1044D00028E0122000F0E8F800F0010080B105218A
:1044E000122001F075F811480068C8B10F48006843
:1044F0008069A8B10D4800688169012088470FE0F4
:104500000421122001F064F80848006840B107480F
:104510000068806920B105480068816900208847EB
:1045200000E000BF00BF10BD740500203400002073
:10453000094890F8DD0010B101280AD108E00648CA
:1045400090F8080118B90121034880F8081101E02A
:1045500000E000BF00BF70477405002010B53E4862
:1045600090F8DC00012802D0022872D13AE03A48E3
:1045700090F8DD0010BB0021374880F8081180F862
:104580000911A0F81411A0F812110B213E2001F01E
:104590001FF810213F2001F01BF82F4890F8FE0073
:1045A00001280CD10D2000F07FF840F04004214696
:1045B0000D2001F00DF8294801F0D6FB06E000209F
:1045C000254981F8DC00254801F012FC24480068E8
:1045D00038B123480068C06818B121490968C86823
:1045E000804737E000F0C2F8FFF7A6F9002000F09E
:1045F0000BFA002412E004EB44011A4A505C00F06C
:10460000B3F904EB4402174B1A44917804EB4402CB
:104610001A44507800F0DCFF601CC4B2102CEAD3BE
:10462000002000F0A1F90C4991F8340100F006FADD
:104630000020094981F8DC000948006838B10848C1
:104640000068406818B1064909684868804701E079
:10465000FFE700BF00BF10BD74050020DC0600208E
:1046600034000020A880000870B50025012000F06B
:104670007BF9FF21112000F0ABFF052000F0C4F909
:1046800000240BE00120FCF760F82C2000F00CF86F
:1046900000F00100A0400543601CC4B2202CF1DBF7
:1046A00000F060FD284670BD38B504460122694619
:1046B000204600F003F89DF8000038BD2DE9F041D8
:1046C00005460E46174600210D48FCF74CFA05F04A
:1046D0007F010B487C3801F023F8002407E000211B
:1046E00007487C3801F01CF83055601CC4B2BC424D
:1046F000F5DB01210248FCF736FABDE8F081000045
:104700004406002070B504460D462A462146002086
:10471000FFF7D4FF70BD000070B50446002514B14A
:10472000012C18D105E01120FFF7BEFF40104542D3
:1047300014E00C48D0F8E0000B49884205D91B2052
:10474000FFF7B2FFA0F19D0504E01B20FFF7ACFFCF
:10475000A0F1A40502E04FF0FF3500BF00BF2846DE
:1047600070BD00007405002040DD4A1F7047000046
:1047700073B504460025494890F8DD0010B10128C2
:104780003FD13FE000214548A0F814119DF80410E6
:10479000A0F8121190F8FA0020B9012101A800F048
:1047A00041FF04E09DF80410322000F011FF9DF855
:1047B0000400002809DD9DF80400402805DC9DF870
:1047C0000410364880F8171109E09DF804202146AE
:1047D000334801F06FFF2021304880F817112F482F
:1047E00090F81711204600F01DFF2C48B0F8141166
:1047F00090F81701084481B22848A0F81411D0F8A5
:10480000005146E0254890F82D0101280DD13320B4
:10481000FFF74AFF00F0BE063146332000F0D8FE15
:1048200019213B2000F0D4FE0DE03320FFF73CFFC0
:1048300000F0BE00461C3146332000F0C9FE1D21A9
:104840003B2000F0C5FE9DF80410144880F83C1190
:104850009DF80410222000F0BBFE00210E2000F085
:10486000B7FE00210D2000F0B3FE0120FFF71CFF72
:1048700020F0F80020B900F08BFC0120FBF765FF69
:104880009DF80410204600F0CDFE0448D0F83051C9
:1048900000BF00BF284600F091FC7CBD74050020DD
:1048A00074040020032806D0052806D0062805D069
:1048B000072801D103E003E000BF00BF00BF00BF35
:1048C00000BF704700B506490978814207D0044906
:1048D000087010B9FFF78DF801E0FFF789F800BD07
:1048E0001C0000202DE9F04104460F48C0F8E040CC
:1048F000204602F0B5F9054600220C4B01F0E4FF1A
:10490000074602F069F90446C4F30741062000F0A7
:104910005FFEC4F30721072000F05AFEE1B2082031
:1049200000F056FEBDE8F0817405002080844E4002
:1049300070B504460D46204600F016F814B1012C5F
:104940000ED108E0074890F8FA0018B9294632203D
:1049500000F03EFE04E02946232000F039FE00BFAF
:1049600000BF70BD7405002070B504460120FFF73C
:104970009BFE00F0800020B10121224880F8DD106C
:1049800003E000211F4880F8DD101E4890F8DD008C
:10499000A04200D170BD1B4880F8DD4090F8DD00DA
:1049A00010B1012814D000BF00F0DCFB0120FFF79C
:1049B0007BFE00F07F052946012000F009FE002162
:1049C000402000F005FE3021412000F001FE15E0FE
:1049D00000F0C8FB0120FFF767FE00F07F0040F009
:1049E00080052946012000F0F3FD0021402000F061
:1049F000EFFD0021412000F0EBFD00BF00BF00BF34
:104A0000C8E700007405002070B504461CB90120F9
:104A1000FFF758FF05E00020FFF754FF2046FFF79F
:104A200041FF0120FFF740FE00F0F80040EA0405D6
:104A30002946012000F0CCFD70BD000010B50446F1
:104A40000120FFF791FF074880F83441012C04D181
:104A50003421392000F0BCFD03E01221392000F0A0
:104A6000B7FD10BD7405002070B504460025002672
:104A70000920FFF719FE05464D20FFF715FE0646F3
:104A80002849D1F8E000FEF7B9FF05F07F0140EAC0
:104A9000010505F08F0040F0700505F080008028CA
:104AA00028D1112C03DD06F0F800C61D02E006F047
:104AB000F800061D06F0070007280DD1052C00DAC6
:104AC0000524142C00DD142405F0F000611F01F012
:104AD0000F0140EA01051CE0022C00DA0224112C2F
:104AE00000DD112405F0F000A11E01F00F0140EAE5
:104AF00001050EE0B4F1FF3F01DA4FF0FF340E2C58
:104B000000DD0E2405F0F000611C01F00F0140EA09
:104B100001052946092000F05BFD31464D2000F0DB
:104B200057FD70BD740500202DE9F04704464FF095
:104B30000009B84890F8DD0010B1012830D130E00C
:104B4000B44890F8FE904020FFF7AEFD00F003005F
:104B500040F00C052946402000F03AFD4120FFF7C7
:104B6000A3FD00F03E0040F0C000451C2946412056
:104B700000F02EFD3520FFF797FD00F03F01A5481E
:104B800080F816111E210D2000F022FD0021A14801
:104B900080F8081180F80911A0F81411A0F812117A
:104BA00005E19C4890F82D01012810D13320FFF732
:104BB0007BFD00F0BE0040F04000451C294633203C
:104BC00000F006FD19213B2000F002FD0DE033202E
:104BD000FFF76AFD00F0BE00451C2946332000F0B7
:104BE000F7FC1D213B2000F0F3FC8A48D0F81C01A3
:104BF00009287CD23120FFF757FD00F07F052946B8
:104C0000312000F0E5FC0021302000F0E1FC81487B
:104C1000D0F81C0109281AD2DFE800F0051A2F4449
:104C20005970858A8F0048212F2000F0D1FC7949E6
:104C3000D1F8E00002F014F807460022764B01F0AC
:104C40008FFD054601F0C8FF8246FFF74BFE79E075
:104C500044212F2000F0BCFC6E49D1F8E00001F0A7
:104C6000FFFF074600226D4B01F07AFD054601F07B
:104C7000B3FF8246FFF736FE64E044212F2000F0A8
:104C8000A7FC6449D1F8E00001F0EAFF07460022E2
:104C9000634B01F065FD054601F09EFF8246FFF77C
:104CA00021FE4FE044212F2000F092FC5949D1F819
:104CB000E00001F0D5FF074600225A4B01F050FDFD
:104CC000054601F089FF8246FFF70CFE3AE04421D9
:104CD0002F2000F07DFC4F49D1F8E00001F0C0FF2B
:104CE00007460022504B01F03BFD054600E02AE05C
:104CF00001F072FF8246FFF7F5FD23E044212F20EB
:104D000000F066FC4349D1F8E00001F0A9FF074636
:104D10000022464B01F024FD054601F05DFF82466E
:104D2000FFF7E0FD0EE040212F2000F051FC09E0EC
:104D300040212F2000F04CFC04E040212F2000F007
:104D400047FC00BF08E03120FFF7AEFC40F08005D3
:104D50002946312000F03CFC2E4890F82E9190F826
:104D60002B0101280DD11D21112000F031FC402024
:104D7000FFF79AFC00F033052946402000F028FC9C
:104D80000CE01F21112000F023FC4020FFF78CFCD9
:104D900000F03F052946402000F01AFC00210F20BA
:104DA00000F016FC00210D2000F012FC00BF00BF37
:104DB0004FF480711E48FBF742FB0120154981F832
:104DC000DC0034B121461B4800F0C4FF194800F054
:104DD000CBFF104890F8DD0078B90520FFF714FEEE
:104DE000B9F1000F13D10B48D0F80411124800F0AC
:104DF000B1FF114800F0B8FF09E0B9F1010F03D18C
:104E00000520FFF701FE02E00620FFF7FDFDBDE8EB
:104E1000F0870000740500200082BE40005AC440A4
:104E20000082CE408057D4408084DE40C058E440A9
:104E300074040020C8060020DC0600202DE9FF4F86
:104E40008DB00D4614469946DDE91EB8DDE91CA774
:104E50001B9E0D98FFF788FD0D9810B1012877D1A2
:104E600098E0BA48C0F8EC50C0F8F4401A99C0F87D
:104E7000F01080F8FA7080F8FBB080F8FC8022997E
:104E800080F8FD10239980F8FE10A0F8F860204605
:104E900001F0E6FE02460B46CDE900010020AC49D8
:104EA00001F012FD0022AB4BCDE9020101F028FF19
:104EB000CDE90601504601F0D3FECDE90401DDE95C
:104EC000062301F01DFF0022A34BCDE9080101F0EC
:104ED00017FFCDE90A0101F07FFE01469B48C0F8AB
:104EE0000411204601F0BCFE02460B46CDE9080144
:104EF00000209A4901F0E8FCCDE90A0101F06CFEBE
:104F000084B2210A022000F063FBE1B2032000F02A
:104F10005FFB2846FBF776FC01460B90122000F061
:104F200057FB1A98FBF76EFC01460B90132000F01C
:104F30004FFB310A252000F04BFBF1B2262000F098
:104F400047FB012F05D15946322000F041FB04E018
:104F5000F8E0FF21322000F03BFB3020FFF7A4FBFC
:104F600000F06F00012F01D1002100E080210843F3
:104F700040EA081001460B90302000F029FB312058
:104F8000FFF792FB40F0400001460B90312000F00B
:104F90001FFBD7E0022D01D900BFFEE7ED1D6B48D6
:104FA000C0F81C51C0F8204180F82591A0F8266176
:104FB00080F8287180F829B180F82A81209980F83A
:104FC0002B11219980F82C11229980F82D11239909
:104FD00080F82E110C2C01D90C2402E0062C00D2F2
:104FE0000624072D03D10B2C05D00C2C03D0082D43
:104FF00006D10C2C04D10121544880F8241103E07F
:105000000021524880F824111D20FFF74DFB00209D
:1050100040EA051040EA49003843C0B201460B900F
:105020001D2000F0D5FA1E20FFF73EFB00F008001F
:1050300040EA041040EA8800032101EA2A210843DB
:10504000C0B201460B901E2000F0C2FA2620FFF7E6
:105050002BFB00F0F7013D4890F8240141EAC00025
:10506000C0B201460B90262000F0B2FA0AF0FF0110
:105070001F2000F0ADFA310A202000F0A9FAF1B2A9
:10508000212000F0A5FA012F03D15946222000F07B
:105090009FFA2E4890F82B01012811D14420FFF7E8
:1050A00003FB00F07F0040F0800001460B9044209D
:1050B00000F08EFA254890F82C11242000F088FA90
:1050C000092D0ED12148D0F8E0002549884208D9A1
:1050D0000221362000F07CFA64213A2000F078FAB0
:1050E0000EE0092D08D10221362000F071FA7F214F
:1050F0003A2000F06DFA03E00321362000F068FA50
:10510000062C0FD13120FFF7CFFA00F0F800401D38
:1051100001460B90312000F05BFA0C21372000F0A3
:1051200057FA0EE03120FFF7BFFA00F0F800C01C7C
:1051300001460B90312000F04BFA0A21372000F095
:1051400047FA00BF00BF11B0BDE8F08F7405002022
:105150000000F03F0000204000408F4080847E41EE
:1051600040DD4A1F10B5074800F042FE064800F037
:105170003FFE0020FFF748FC0020044981F8DC00D6
:1051800010BD0000C8060020B406002074050020F1
:1051900010B5074800F02CFE064800F029FE01205B
:1051A000FFF732FC0020044981F8DC0010BD00004C
:1051B000C8060020B40600207405002070B504461F
:1051C00021462C4800F0C6FD2B4890F8DD0010B1B8
:1051D000012842D11CE04020FFF766FA00F00300EE
:1051E00040F010052946402000F0F2F94120FFF779
:1051F0005BFA00F03E052946412000F0E9F9352030
:10520000FFF752FA00F03F011B4880F8161124E026
:10521000194890F82B0101280FD1F521112000F039
:10522000D7F94020FFF740FA00F0330040F0400586
:105230002946402000F0CCF90EE0F721112000F0C3
:10524000C7F94020FFF730FA00F03F0040F040057A
:105250002946402000F0BCF900BF00BF02200649EB
:1052600081F8DC00034800F07FFD0320FFF7CCFB52
:1052700070BD0000B4060020740500202DE9FF5F1A
:105280008346884617461D46DDE9119A109E0E9CFE
:105290005846FFF769FB4046FFF7E6FBBBF1000FFE
:1052A00003D0BBF1010F68D168E08C4880F8E4803E
:1052B000C0F8E870C0F8EC50C0F8F440A0F8F8600E
:1052C00080F8FA9080F8FCA0159980F8FD101699E6
:1052D000C0F80011384601F0C3FC0022804BCDE934
:1052E000000101F0F1FACDE9020101F075FC87B28D
:1052F000390A042000F06CF9F9B2052000F068F9D1
:10530000204601F0ADFC02460B46CDE9000100202D
:10531000744901F0D9FACDE9020101F05DFC84B2D3
:10532000210A022000F054F9E1B2032000F050F904
:10533000310A252000F04CF9F1B2262000F048F99E
:105340003020FFF7B1F900F06F00B9F1010F01D182
:10535000002100E08021084340EA0A100146039042
:10536000302000F035F93120FFF79EF940F0400081
:1053700001460390312000F02BF9ACE0574880F84B
:105380001881022D01D900BFFEE7ED1D5348C0F87A
:105390001C51C0F820410F9980F82511A0F8266112
:1053A00080F82891139980F82B11149980F82C110A
:1053B00080F82AA1159980F82D111699C0F830119E
:1053C0000C2C01D90C2402E0062C00D20624072D57
:1053D00003D10B2C05D00C2C03D0082D06D10C2C9E
:1053E00004D101213D4880F8241103E000213B480D
:1053F00080F82411394890F82B01012811D144205C
:10540000FFF752F900F07F0040F080000146039062
:10541000442000F0DDF8314890F82C11242000F0F1
:10542000D7F81D20FFF740F9002040EA05110F983A
:1054300041EA400040EA0900C0B2014603901D2045
:1054400000F0C6F81E20FFF72FF900F00B0040EA2D
:10545000041040EA8A00C0B2014603901E2000F00A
:10546000B7F82620FFF720F900F0F7011B4890F865
:10547000240141EAC000C0B201460390262000F09A
:10548000A7F8310A202000F0A3F8F1B2212000F0A3
:105490009FF8062C0FD13120FFF706F900F0F80035
:1054A000401D01460390312000F092F80C21372076
:1054B00000F08EF80EE03120FFF7F6F800F0F8006B
:1054C000C01C01460390312000F082F80A213720E9
:1054D00000F07EF800BF00BFBDE8FF9F740500200C
:1054E00080844E4080847E412DE9F04F89B0824611
:1054F0008B461446204601F0B3FB074600221F4BA3
:1055000001F0FEFB054601F067FB81465046FFF7C0
:10551000E9F90020059006900522CDE90709CDE9BB
:105520000102039004904FF4965000231A46594606
:1055300000901846FFF7A2FE3120FFF7B5F800F003
:10554000BF052946312000F043F8F021402000F04B
:105550003FF8A021412000F03BF84946084800F000
:10556000F9FB0220074981F8DC00054800F0FCFB4C
:105570000320FFF749FA09B0BDE8F08F00408F40E3
:10558000B40600207405002010B5104890F8DD0026
:1055900010B1012816D100E015E0FA21112000F029
:1055A00017F84020FFF780F800F0FC042146402067
:1055B00000F00EF80320054981F8DC000720FFF712
:1055C00023FA00E000BF00BF10BD000074050020FA
:1055D00013B50446012201A9204600F001F81CBDC4
:1055E0002DE9F04105460E46174600210C48FBF711
:1055F000BAFA45F080010A487C3800F091F800249E
:1056000006E0315D06487C3800F08AF8601CC4B2C0
:10561000BC42F6DB01210248FBF7A5FABDE8F081A8
:105620004406002070B504460D462A462146002057
:10563000FFF7D6FF70BD1CB504462046FDF7A5F860
:1056400000200090019094F958100346012204F1C3
:105650005800FBF7F3F800200221CDE9001094F97F
:1056600064100346012204F16400FBF7E7F8002010
:105670000090019094F970100346012204F170002B
:10568000FBF7DCF801200090019094F97C100023D6
:10569000024604F17C00FBF7D1F81CBD70B5049CF8
:1056A0000026866009B9C66002E04FF40066C66055
:1056B0000261436100260662466286620726C66270
:1056C0001CB94FF48275456001E00025456070BD4E
:1056D00070B502460020114D2B6804E0401C5B08A9
:1056E000072800D301E08B42F8D800BF00F0040582
:1056F0000DB9002500E0202500F002060EB90026B5
:1057000000E01026354300F001060EB9002600E047
:10571000082645EA0604D46170BD00002C00002074
:1057200070B504460D4600260CB1206800B900BFD4
:105730002068006840F0400021680860FAF750FFD8
:1057400000BF20688068C0F340000028F9D0E8B2AC
:105750002168C86000BF2068806800F00100002850
:10576000F9D02068C068C6B2FAF744FF304670BD71
:105770002DE9FC4104460D4617469846089EFAF767
:105780002FFF072D5FD16748006840F480506549BE
:1057900008600846006820F48050086000BF614837
:1057A0000C30006840F480505E490C3108600846B7
:1057B000006800F48050019000BF00BF5A4820608C
:1057C0000520022100230A46CDE90010294604F1F4
:1057D0005800FBF733F80520022100230A46CDE9E3
:1057E0000010394604F16400FBF728F80520022177
:1057F00000230A46CDE90010414604F17000FBF792
:105800001DF80520012100230222CDE900103146B8
:1058100004F17C00FBF712F8701C58B94FF40071CA
:10582000A161002003460246014600902046FFF792
:1058300035FF6BE0012000231A46194600902046F0
:10584000FFF72CFF62E01F2D60D13648001D006875
:1058500040F480403349091D08600846006820F480
:105860008040086000BF2F481030006840F480403E
:105870002C49103108600846006800F4804001900F
:1058800000BF00BF294820600520022100230A46EE
:10589000CDE90010294604F15800FAF7CFFF0520A2
:1058A000022100230A46CDE90010394604F16400C4
:1058B000FAF7C4FF0520022100230A46CDE90010B3
:1058C000414604F17000FAF7B9FF052001210023D9
:1058D0000222CDE90010314604F17C00FAF7AEFF58
:1058E000701C58B94FF40071A161002003460246B4
:1058F000014600902046FFF7D1FE07E0012000237B
:105900001A46194600902046FFF7C8FE084920466F
:10591000FFF7DEFE2046FCF750FFFAF76BFEBDE80E
:10592000FC81000014380240003001400038004083
:105930008096980010B5FBF769FAFCF7ADFF10BD33
:1059400010B596B000BF2A48006840F08050284942
:1059500008600846006800F08050019000BF00BF5A
:105960002448006820F4C05040F4006021490860D9
:105970000520099001200A900B9002201290C1038B
:1059800013914FF4402114914105159109A8FBF79B
:10599000F3FD00B100BF0F2004900320059000200C
:1059A000069007900890012104A8FBF7E5FB00B1E1
:1059B00000BF012002900004039002A8FBF7F2FA56
:1059C00000B100BFFBF74CFD4FF47A71B0FBF1F46E
:1059D0002046FCF747FF0420FCF72FFF0320FBF7CE
:1059E00089FA00221146501EFBF746FA16B010BD88
:1059F000243802400070004008B500BF3D480068F0
:105A000040F080503B4908600846006800F0805034
:105A1000009000BF00BF3848006820F4C05040F438
:105A200000603549086000BF32482438006840F4FF
:105A3000803030492439086000BF00BF20200103B6
:105A400091FAA1F1B1FA81F108430121B1EB601F94
:105A500003D128482438006802E026481030006846
:105A600020210A0392FAA2F2B2FA82F2114301F063
:105A70001F020121914008400028DFD001200106CB
:105A800091FAA1F1B1FA81F11C4A42F8210000BF5C
:105A90002020010591FAA1F1B1FA81F10843012119
:105AA000B1EB601F03D113482438006802E01148AD
:105AB0001030006820210A0592FAA2F2B2FA82F2AE
:105AC000114301F01F020121914008400028DFD05E
:105AD00008481C38006820F00300C01C05491C3928
