:020000040800F2
:1000000058130020B50100085D420008BF01000838
:100010003142000865170008158200080000000042
:10002000000000000000000000000000C701000800
:10003000C117000800000000CB01000895750008FA
:10004000CF010008CF010008CF010008CF01000850
:10005000CF010008CF010008E317000829180008A5
:10006000371800084518000853180008CF01000889
:10007000CF010008CF010008CF010008CF01000820
:10008000CF010008CF010008CF010008CF01000810
:10009000CF010008CF010008CF0100086118000857
:1000A00000000000CF010008CF010008CF010008C8
:1000B000C5770008D5770008E5770008CF0100086C
:1000C000CF010008CF010008CF010008CF010008D0
:1000D000CF010008A17F0008CF010008CF01000870
:1000E000F117000869480008CF010008CF01000897
:1000F000CF01000800F002F800F04DF80AA090E8E7
:10010000000C82448344AAF10107DA4501D100F0D2
:1001100042F8AFF2090EBAE80F0013F0010F18BF52
:10012000FB1A43F00103184778AB000098AB0000BE
:10013000103A24BF78C878C1FAD8520724BF30C813
:1001400030C144BF04680C607047000000230024E5
:1001500000250026103A28BF78C1FBD8520728BFD7
:1001600030C148BF0B607047662909F08285642959
:1001700000F08A80752900F08780002070471FB545
:1001800000F0DCFC04000020002108F083FCE060AB
:100190001FBD10B510BD00F0D5FD1146FFF7EFFFF4
:1001A00008F0B0FA00F0F3FD03B4FFF7F2FF03BC70
:1001B00008F04DF80948804709480047FEE7FEE788
:1001C000FEE7FEE7FEE7FEE7FEE7FEE7FEE7FEE707
:1001D00004480549054A064B70470000617700084E
:1001E000F50000085807002058130020580F002081
:1001F000580F0020704700000FB4044910B503AA3F
:10020000029800F089FC10BC5DF814FB2800002067
:100210000FB41CB5074B06AA7B44694600900598AD
:1002200000F061FC0020694600F070FC1CBC5DF829
:1002300014FB0000F108000070B5044685690068F1
:10024000C10601D5302600E02026C00707D070BDCA
:10025000D4E9012130469047206A401C20626D1E7F
:10026000F6D570BD70B5044685690078C00707D122
:1002700070BDD4E9012120209047206A401C2062F3
:100280006D1EF6D570BD00002DE9F0410646002434
:1002900010687529314616A510D0AFF300800028EC
:1002A00002DA404213A507E031688A0701D512A59A
:1002B00002E0490704D511A5012401E0AFF3008055
:1002C00000210A2206F1240709E0B0FBF2FCB0FB92
:1002D000F2F302FB1C00303078541846491C002809
:1002E000F3D123462A463046BDE8F04100F08DB9EF
:1002F000000000002D0000002B0000002000000086
:100300002DE9F05F894604464FF0000ADFF874B12A
:10031000FB44C0F820A02046E1688847002874D03C
:10032000252806D0D4E901219047206A401C20628C
:10033000F1E700265F462046E16888472028054609
:1003400007DB312D05D2781910F8200C08B10643CF
:10035000F1E7B00701D526F00406C4F81CA0002779
:10036000C4F818A02A2D09D0284607F069FF38B331
:1003700004EB8708303DC8F8185019E059F8041B01
:10038000204604EB87029161E1688847012F05460A
:1003900018D1E069002820DA26F020061DE0D8F800
:1003A000180000EB800005EB40003038C8F818005A
:1003B0002046E1688847054607F042FF0028EED155
:1003C000012F0AD02E2D08D12046E16888477F1CD6
:1003D0000546022F46F02006C4DBA069002803DA98
:1003E000404246F00106A061F00701D026F0100659
:1003F0006C2D0BD0682D09D04C2D39D06A2D35D0FD
:10040000742D35D07A2D33D016E038E0E1682F46D0
:1004100020468847B842054609D16C2F26D04FF4B4
:100420008060E168064320468847054604E06C2F5B
:100430001AD04FF4807006430DB3A5F1410019287E
:1004400002D8203546F400664A46294620462660F2
:100450004E46FFF789FE80B101280BD0F61D26F02D
:10046000070000F1080956E74020E4E78020D8E7BC
:100470000020D6E706F104094DE7284652E7206A36
:10048000BDE8F09FE4A8000010B5431C02E010F89E
:10049000011B71B18107FAD14FF0013202C88C1AE9
:1004A0008C4314EAC211F9D0C01A0A0603D0C01E48
:1004B00010BDC01A10BD0A0401D0801E10BD090273
:1004C000FCD0401E10BD032A40F2308010F0030C17
:1004D00000F0158011F8013BBCF1020F624498BF97
:1004E00011F801CB00F8013B38BF11F8013BA2F134
:1004F000040298BF00F801CB38BF00F8013B11F0AF
:10050000030300F02580083AC0F0088051F8043B4E
:10051000083A51F804CBA0E80810F5E7121D5CBFBB
:1005200051F8043B40F8043BAFF30080D20724BFEE
:1005300011F8013B11F801CB48BF11F8012B24BF82
:1005400000F8013B00F801CB48BF00F8012B7047D1
:1005500010B5203AC0F00B80B1E81850203AA0E85E
:100560001850B1E81850A0E81850BFF4F5AF5FEA92
:10057000027C24BFB1E81850A0E8185044BF18C945
:1005800018C0BDE810405FEA827C24BF51F8043BEC
:1005900040F8043B08BF7047D20728BF31F8023B40
:1005A00048BF11F8012B28BF20F8023B48BF00F8D4
:1005B000012B70474FF0000200B513469446964653
:1005C000203922BFA0E80C50A0E80C50B1F1200166
:1005D000BFF4F7AF090728BFA0E80C5048BF0CC014
:1005E0005DF804EB890028BF40F8042B08BF704772
:1005F00048BF20F8022B11F0804F18BF00F8012BE4
:10060000704770477047704770472DE9F0470D46B7
:1006100099469246044600F124080168880604D5EC
:10062000E06921F01001216000E00120A84201DD15
:10063000471B00E00027A1697A1902EB0900081A9C
:10064000A0612078C00602D42046FFF7F5FD002601
:1006500008E0D4E901211AF806009047206A401CFE
:10066000761C20624E45F4DB2078C0060AD5204671
:10067000FFF7E2FD06E0D4E9012130209047206A2F
:10068000401C2062381EA7F10107F4DC07E0D4E922
:10069000012118F805009047206A401C2062281E9E
:1006A000A5F10105F3DC2046FFF7DCFD207800060C
:1006B00002D50220BDE8F0870120FBE770472DE955
:1006C000FF4F0C461E464FF0FF378BB0D2E90001BA
:1006D000DDF860800A908A46C1F30A5505B93D46A7
:1006E000002108464FF00000BAF1000F00F440006E
:1006F00005DA00EB80004FF4400101EA50004FEAB8
:100700009059B9F1010F00DDB9460A9850EA4A0044
:100710000ED044F61050A5F2FF3545432F14B8F122
:10072000000F1ED07542291E1EDDC9F100021CE01B
:10073000B8F1010F4FF0000001D0302103E0F24387
:1007400005E02154401CB042FBDB30460022002172
:1007500021540B99C1F80880C1E900200FB0BDE811
:10076000F08FBD1B6D1CDEE74A4600DA694206A821
:1007700000F06EFA06AB93E8070003AB83E80700CE
:1007800050460A9900F04CFB8DE80700A0F5005098
:100790001F3800900398002D0ADD42F21F014A46DF
:1007A0000844002303A90390684600F0B5FD09E062
:1007B000A0F500504A461F38002303A9039068465D
:1007C00000F0BFFD8DE807000004000C03D04FF0DF
:1007D000FF30410800E01046B8F1000F03D00022BE
:1007E000009215461EE0751E05D400F0ABF93032BC
:1007F00062556D1EF9D5B3460122084302D000228E
:100800007F1C04E02078302801D100227F1E002ABE
:10081000099784D01DE0112D07DA00F093F93032EA
:1008200062556D1C50EA0102F5D1084302D00098D0
:10083000C8B10EE00021681E05E0235C625C6354D1
:100840002254401E491C8142F7DBAB46A81B401EC8
:100850000990002004F80B000B98099AC0F8088052
:10086000C0E9002B7AE711264FF0000857E72DE981
:10087000F04F88460446D21D22F0070191B0D1E91D
:100880000001CDE90A0107F0C7FC02460B98C00F32
:1008900001D02D2007E02068810701D52B2002E040
:1008A000202101EAC000032A099001D0072A05DBB4
:1008B00003464146204600F08BF90BE12078800684
:1008C00001D5E06900E00620B8F1650F814606D049
:1008D000B8F1660F18D0B8F1670F70D131E0002081
:1008E000B9F1110F009001DB112301E009F10103BF
:1008F0000AAA01A90CA8FFF7E2FEDDE90C700026A8
:1009000009F10105834647E001204B4600904FF076
:1009100000470AAA01A90CA8FFF7D1FEDDE90DB036
:100920000C995D46002610B909F101000D18B9EBCC
:10093000050003D4C0F1FF3609F10105A5EB09005C
:100940002BE0B9F1010F01DA4FF001090020B9F1F4
:10095000110F0090484601DD112300E003460AAA6A
:1009600001A90CA8FFF7ABFEDDE90C704D4600268F
:100970008346207800070AD4AB4500DA5D4601A81B
:10098000012D04DD411911F8011C302907D04F4514
:1009900002DA17F1040F04DA012082460FE06D1E1F
:1009A000EEE7002F02DCED1B3E4403E0781CA8427A
:1009B00000DD7D1CB81B00F1010A4FF000472078D4
:1009C000000703D4AA4501DB4FF0FF3A0021B7F13D
:1009D000004F0DF143088DF8431024D002202B2343
:1009E000002F01DA7F422D230A21021EA0F101000F
:1009F00000DC5FB197FBF1FC97FBF1F201FB1C7C83
:100A000017460CF1300C08F801CDEEE7A8F1010013
:100A100003702188090501D5452100E06521A0F179
:100A2000010800F8011C09980FA9A1EB0807FF1D98
:100A300000B10120411901EBEA70A1693844081A9C
:100A4000401EA0612078C00602D42046FFF7F4FBC8
:100A5000099828B1D4E901219047206A401C2062FE
:100A60002078C00622D52046FFF7E6FB1EE0002EC8
:100A700004DBB34502DD01A8805D00E03020D4E94D
:100A800001219047206A401C2062761CAAF10100D7
:100A90005FEA000A0AD100F051F8C0680168405CC2
:100AA000D4E901219047206A401C2062281EA5F14C
:100AB0000105DCDC07E0D4E9012118F8010B9047BF
:100AC000206A401C2062381EA7F10107F3DC204693
:100AD000FFF7C8FB032011B041E6000001694A1C82
:100AE00002610878704700B58FB0CDE9013100216F
:100AF000059105497944CDE9031011466846FFF791
:100B0000FFFB0FB000BD0000E5FFFFFF0A6802F821
:100B1000010B0A6070470000074B70B50D467B441F
:100B2000FFF7E1FF0446284600F004F910B14FF04A
:100B3000FF3070BD204670BDBF7B0000004870478D
:100B40001407002030B5B0F10A024FEA900E71F19F
:100B500000034EEA817EB0EB0E0061EB91014FEA9B
:100B6000101E4EEA017E10EB0E0041EB11114FEA10
:100B7000102E4EEA016E10EB0E0041EB11214FEAF0
:100B8000104E4EEA014E10EB0E0041EB11414018A1
:100B900041F100014FEAD00040EA41704FEAD10133
:100BA00010EB80054FEA810444EA907444EB0104A1
:100BB0006D1944EB0404521BA3414FF0000348BFDE
:100BC0000A3200D530BD401C41F1000130BD0000AB
:100BD0002DE9F0411F46044603260168072A01F467
:100BE000006004DB08B116A505E016A503E008B116
:100BF00015A500E015A521F010002060A069C01E19
:100C0000A0610FB1401EA0612046FFF715FB4FB158
:100C1000D4E9012138469047206A401C2062C01C5C
:100C2000206206E0206AFAE7D4E9012115F8010BF9
:100C30009047761EF8D22046FFF714FBBDE8F081FE
:100C40004E414E006E616E00494E4600696E660070
:100C50002DE9F047814616468AB0354878440DC8DC
:100C60008DE80D0032487844801C03AC0DC884E840
:100C70000D0041F69B300844372190FBF1F290FBC8
:100C8000F1F5A5F1800501FB12041B3C02D564427D
:100C9000012000E00020DFF898A080460027FA44F9
:100CA000AAF1BE0A0EE0E0070AD03246684607EB1A
:100CB000470101230AEB810100F043FB8DE80700A7
:100CC00064107F1C002CEED1194F7F44AE3F19E019
:100CD000E80715D007EB04100DF1180A90E80E0094
:100CE0008AE80E00C068F04201D198190890324697
:100CF000012306A903A800F024FB03AB83E8070047
:100D00006D10641C002DE3D14FF00103324669469B
:100D1000B8F1000F03A802D000F0FEFA01E000F0E5
:100D200010FBC9E90001C9F808200AB0BDE8F08746
:100D300028A00000007B00F080007047004870474A
:100D4000F40600207546FFF7F9FFAE460500694638
:100D5000534620F00700854618B020B5FFF738FA53
:100D6000BDE820404FF000064FF000074FF00008AC
:100D70004FF0000B21F00701AC46ACE8C009ACE82D
:100D8000C009ACE8C009ACE8C0098D46704710B591
:100D90000446AFF300802046BDE81040FFF704BAD8
:100DA0004FF0013C50F8042B51F8043B9A4221D1FA
:100DB000A2EB0C03934313EACC1317D150F8042B86
:100DC00051F8043B9A4215D1A2EB0C03934313EA6A
:100DD000CC130BD150F8042B51F8043B9A4209D1A3
:100DE000A2EB0C03934313EACC13DBD04FF00000CB
:100DF000704700BFD01A01BAB1FA81F101F01801B1
:100E000022FA01F0CB40C1F12001DBB2C0B2C01A1E
:100E10002CFA01F3D11A914311EAC311E6D17047BC
:100E20005FEA400C08BF91F0000F4FEA8C234FEAB5
:100E3000C12243EA51514FEA1C5018BF00F5F0405F
:100E40004FEA300018BF41F000415FEA6C5C00F0EF
:100E50002980BCF1FF3F08BF40F080407047130C71
:100E600006BF12044FF0100C4FF0000C130E04BF1D
:100E700012020CF1080C130F04BF12010CF1040C48
:100E8000930F04BF92000CF1020CD30F04BF520069
:100E90000CF1010C11464FF00002A0F11F00A0EB75
:100EA0000C00704711F0004F08BF704731F000414F
:100EB0003FF4D5AF0B0C06BF09044FF0100C4FF0F8
:100EC000000C0B0E04BF09020CF1080C0B0F04BF41
:100ED00009010CF1040C8B0F04BF89000CF1020C0A
:100EE000CB0F04BF49000CF1010CCCF12003A0EBA7
:100EF0000C0022FA03F302FA0CF241EA030100F1BA
:100F00000100704720F07F4C80EA030023F07F4708
:100F1000ACEB070303F57C5300F0004003F1FF0343
:100F20002DE980494FEA154B09B44FEA144325EAED
:100F30000B4E24EA03480FF2042606EB1327490858
:100F40003E785FEA320203FB0667C7F5000707FB3E
:100F500006F64FEA54374FEAD64606F1020607FB7B
:100F6000066CCCF1005C4FEA1C472CEA074C07FBEF
:100F700006F40CFB06F504EB15464FEA961634BF53
:100F800000204FF000404FEAD13706FB07FC4FEA44
:100F90001C4C0CFB0BF7D21B03FB0CF761EB07019E
:100FA0000CFB0EF7B0EB074072EB17420CFB08F797
:100FB00034BFA2EB0742B2EB074261EB17414FEAA5
:100FC0000C444FEA910706FB07FC4FEA1C4C0CFB54
:100FD0000BF7B0EBC74072EB573203FB0CF734BF93
:100FE000A2EBC742B2EBC74261EB57310CFB0EF7E5
:100FF000B0EBC70072EB57720CFB08F734BFA2EBE3
:10100000C702B2EBC70261EB5771039F4FEA8161E0
:1010100041EA921104EBCC044FEAD1374FEA8262E5
:1010200006FB07FC42EA90124FEA80604FEA1C4C34
:101030000CFB0BF7D21B03FB0CF761EB07010CFB5E
:101040000EF7B0EB074072EB17420CFB08F734BF0A
:10105000A2EB0742B2EB074261EB17414FEA8C5516
:101060004FEA910704EB9C2406FB07FC4FEA1C4C5B
:101070000CFB0BF7B0EBC74072EB573203FB0CF7DE
:1010800034BFA2EBC742B2EBC74261EB57310CFB56
:101090000EF7B0EBC70072EB57720CFB08F734BFCA
:1010A000A2EBC702B2EBC70261EB577115EB4C25FF
:1010B0004FEA816141EA92114FEA82624FEAD137E9
:1010C00042EA901206FB07FC44F100044FEA8060FC
:1010D0004FEA1C4C0CFB0BF7D21B03FB0CF761EB2C
:1010E00007010CFB0EF7B0EB074072EB17420CFB4D
:1010F00008F734BFA2EB0742B2EB074261EB17419E
:1011000015EB1C154FEA813141EA92414FEA8232D8
:1011100042EA90424FEA80304FEA0C7644F10004F4
:1011200048EA03434EEA0B484FF0000EB2EB080CBE
:1011300071EB030724BF624639464EEB0E0E4FF0AB
:10114000000B0018524149414BEB0B0BB2EB080C62
:1011500071EB03077BF1000B24BF624639464EEB6F
:101160000E0E4FF0000B0018524149414BEB0B0B98
:10117000B2EB080C71EB03077BF1000B24BF624656
:1011800039464EEB0E0E51EA020718BF46F0010633
:1011900016EB0E7655F1000254F1000103D5BDE8BF
:1011A0008901BDE80088BDE88901BDE80048B6199D
:1011B000524141EB0101A3F10103704780807F7E22
:1011C0007D7C7B7A797877767675747372717170BD
:1011D0006F6E6E6D6C6C6B6A6A696868676666656F
:1011E0006464636362616160605F5F5E5E5D5D5CFD
:1011F0005C5B5B5A5A59595858575756565555556E
:101200005454535352525251515050504F4F4F4ECD
:101210004E4D4D4D4C4C4C4B4B4B4A4A4A4949491B
:10122000484848474747474646464545454444445D
:10123000444343434342424242414141002B9C4686
:1012400030D477002BD01CB54FEA370703B44FF0EA
:1012500010004FF01001BAF1000F06D0BCF1000FE2
:10126000DCBF40F0080040F008014FF000000FBC68
:10127000BDE810400BF1010BBBF1010F08BF5FEAA5
:10128000170722BF12F1010211F101014FF00041D5
:1012900043F1000300F0004043EA00007047F9D337
:1012A0005708D0E746EA064613F1400F4FEA1646C4
:1012B0001FDD13F1200FDFBF16430A460021203344
:1012C0005B42BED0C3F1200746EA064602FA07F7A2
:1012D0004FEA164646EA0706C3F1200722FA03F250
:1012E00001FA07F721FA03F14FF0000342EA07027F
:1012F000A7E746EA020646EA06464FEA164646EAE7
:101300000106BCBF46EA0646360C4FF000034FF01C
:1013100000024FF0000194E72DE9804C9A46934675
:1013200070B491E8380007C831EA400C48BF34EA8D
:10133000430C03D5FFF7E6FDFFF780FFF0BCBDE8E7
:10134000008C2DE9804C9A46934670B491E83800A1
:1013500007C810F0804F08BF13F0804F03D100F092
:1013600005F8FFF76BFFF0BCBDE8008C20F07F476D
:1013700080EA030023F07F4C07EB0C03A3F57C53BA
:1013800000F00040A3F1FE0392F0000F00F0B380E4
:1013900095F0000F00F077802DE901494FEA1140E8
:1013A0004FEA144621EA004800FB06FC24EA0647FF
:1013B00008FB06F607FB08F800FB07F718EB0648E2
:1013C0004CEB164C4FEA124B18EB07484FEA154608
:1013D0004CEB174022EA0B4E0BFB06FC25EA0647B6
:1013E0000EFB06F607FB0EFE0BFB07F71EEB064E89
:1013F0004CEB164C4FF000061EEB074E4CEB174B18
:1014000018EB0B0840F1000018EB0E0B58EB00082E
:1014100040F100008F1A4FF000013CBFC943661B2A
:1014200014BFB5EB040C00213CBFC943F61B4FEAC7
:1014300017444EEA8E0E27EA04454FEA1C4704FB88
:1014400007622CEA074C05FB07F70CFB05F604FBCB
:101450000CFC16EB074642EB174216EB0C4642EB30
:101460001C421BEB060658EB0202414146EA9E066F
:1014700001D5BDE80189B619524141EB0101A3F143
:101480000103BDE801894FEA14454FEA114724EAF8
:10149000054621EA074C05FB07F406FB07F70CFBA2
:1014A00006F105FB0CFC11EB074144EB17444FEA36
:1014B000124711EB0C4144EB1C4422EA074C05FB9C
:1014C00007F206FB07F70CFB06F605FB0CFC16EB18
:1014D000074642EB174216EB0C4642EB1C456A18D6
:1014E00054F1000148BF7047B619524141EB010168
:1014F000A3F10103704795F0000F37D04FEA114276
:101500004FEA144721EA024624EA074C02FB07F19E
:1015100006FB07F70CFB06F402FB0CFC14EB07447C
:1015200041EB17414FEA154714EB0C4441EB1C41CA
:1015300025EA074C02FB07F506FB07F70CFB06F64E
:1015400002FB0CFC16EB074645EB174516EB0C4669
:1015500045EB1C42121951F1000148BF7047B61902
:10156000524141EB0101A3F1010370474FEA1445D9
:101570004FEA114724EA054621EA074C05FB07F12B
:1015800006FB07F70CFB06F24FF0000605FB0CFC10
:1015900012EB074241EB174112EB0C4251EB1C419D
:1015A00048BF7047921841EB0101A3F10103704756
:1015B0000021014A117070475400002010B5044604
:1015C000012C01D103F0ECFC0148047010BD0000B7
:1015D0001100002000B585B01648FFF7E9FF164856
:1015E00005F058FE04F088F900200090034603221D
:1015F0005021019002A800F079F9002000900346E4
:1016000003225121019002A800F070F900200090FF
:10161000034602462E21019002A800F067F900203F
:101620000090034602462F21019002A800F05EF9C7
:1016300005B000BD94010020CC05002072B603481F
:101640000078401C01490870704700000800002025
:1016500004480078401E034908700846007800B925
:1016600062B670470800002008B51348007840B9FA
:1016700000F054FC05F094FF03F03AFC00F040F851
:1016800001E005F0E9FF4FF0FF30052306220721B6
:1016900000900A4805F09CFE04F050F906480078D6
:1016A00040B901200449087000F001F9012801D176
:1016B00000F05AF808BD000006000020CC0500200C
:1016C0001CB50020009003460122032101900A4826
:1016D00000F00CF90020009003460122182101902F
:1016E000064800F003F90121034800F0B1FA012196
:1016F000024800F0ADFA1CBD7C01002088010020EA
:1017000000B585B000F0D3F8012811D10020009079
:10171000034603220B21019002A800F0E7F8002005
:101720000090034603220C21019002A800F0DEF88D
:1017300000200090012303221221019002A800F052
:10174000D5F800200090034603220821019002A84A
:1017500000F0CCF800F09EFA00F088FA00F090FA61
:1017600005B000BD00BFFEE710B50B48007890B98A
:101770000A490B4806F0CCF84FF47A71084806F095
:1017800093F9074806F09AF901E006F05BF9024880
:1017900000780028F9D010BD070000209546000809
:1017A000D801002010B50246002003E0137803445E
:1017B000D8B2521C0B1EA1F10104E1B2F6D110BD4A
:1017C0007047002104E000BF00BF00BF00BF491CFC
:1017D0008142F8D3704710B50446204600F064FA01
:1017E00010BD10B503F0DCFB012000F081FA10BD44
:1017F00010B503F0D5FB4FF4806000F079FA4FF498
:10180000006000F075FA4FF4805000F071FA4FF468
:10181000005000F06DFA4FF4804000F069FA4FF488
:10182000004000F065FA10BD10B503F0B9FB0220CE
:1018300000F05EFA10BD10B503F0B2FB042000F01A
:1018400057FA10BD10B503F0ABFB082000F050FABA
:1018500010BD10B503F0A4FB102000F049FA10BD34
:1018600010B503F09DFB202000F042FA402000F06C
:101870003FFA802000F03CFA4FF4807000F038FA14
:101880004FF4007000F034FA10BD30B50346002567
:10189000002408E01878904202D11D46284630BD49
:1018A0005B1C601CC4B28C42F4DB0020F7E7002014
:1018B000704700000246002111E00B4850F831004B
:1018C00090420AD8084B481C53F83000904204D983
:1018D000184600EBC10000797047481CC1B21529B9
:1018E000EBD300BFFEE7000048AB00082DE9FC4742
:1018F00005460C4616461F46DDE90A890620B0EB70
:10190000241F07D33B46324621462846CDE90089AD
:1019100000F002F8BDE8FC872DE9F04387B00446EB
:101920000E4615461F46DDE90E982670701C10B94C
:1019300007B0BDE8F083207800F00F010120884057
:101940006080207800F0F00078B94748606000BF00
:101950004648006840F001004449086008460068B5
:1019600000F00100019000BF4EE0207800F0F00090
:1019700010280FD13E48606000BF3C48006840F02E
:1019800002003A4908600846006800F00200019031
:1019900000BF39E0207800F0F00020280FD1354852
:1019A000606000BF3148006840F004002F490860C3
:1019B0000846006800F00400019000BF24E0207891
:1019C00000F0F00030280FD12B48606000BF27489E
:1019D000006840F00800254908600846006800F0EB
:1019E0000800019000BF0FE02448606000BF1F485E
:1019F000006840F020001D4908600846006800F0BB
:101A00002000019000BF00BF6088029084F80A9017
:101A1000CDF810900220059015B90020039017E032
:101A2000032D02D10320039012E0022D09D1012FD2
:101A300002D11220039001E002200390CDF818801B
:101A400006E0012F02D11120039001E00120039054
:101A5000012D03D14146204600F0C7F802A9606875
:101A600000F054F900BF63E7000002401C38024058
:101A70000004024000080240000C02400014024032
:101A80002DE9F04385B004460D4616461F464FF03B
:101A900000084FF0060917B905B0BDE8F08360886B
:101AA0000090012D02D14448019006E0022D02D1A0
:101AB0004248019001E042480190A07A0290022041
:101AC00003906946606800F021F9052E0ED2DFE828
:101AD00006F00304070A0E0000BF4FF0030809E0F8
:101AE0004FF0020806E04FF0010803E000BF4FF09E
:101AF000000800BF00BF6088B0F5807F3DD012DCD9
:101B0000102834D008DC012825D0022826D004284B
:101B100027D008283DD127E020282BD040282AD0E4
:101B2000802836D128E0B0F5805F2CD009DCB0F5F4
:101B3000007F23D0B0F5806F23D0B0F5006F28D19F
:101B400020E0B0F5005F1FD0B0F5804F1DD0B0F59C
:101B5000004F1ED11AE04FF006091BE04FF00709B5
:101B600018E04FF0080915E04FF0090912E04FF0B6
:101B70000A090FE000BF00BF00BF00BF4FF0170908
:101B800008E000BF00BF00BF00BF00BF4FF0280942
:101B900000E000BF00BF207800F00F00094941F8C5
:101BA000207000224146484600F0E6F9484600F021
:101BB000D6F900BF70E700000000111000002110EE
:101BC00000003110EC01002010B504460CB1606833
:101BD00000B900BF94F90000401C00B910BD618835
:101BE000606800F083F900BFF8E770B504460D4661
:101BF0000CB1606800B900BF94F90000401C00B946
:101C000070BDEAB26188606800F074F900BFF7E760
:101C10002DE9F04104460D4616461F4694F9000092
:101C20000621B1EB201F05D33B463246294620460C
:101C3000FFF726FFBDE8F08110B5044694F90000D7
:101C40000621B1EB201F02D32046FFF7BDFF10BDD8
:101C500070B504460D4694F900000621B1EB201F33
:101C600003D329462046FFF7C0FF70BD03484068F4
:101C700040F001000149486070470000002004E086
:101C80000348406840F00400014948607047000084
:101C9000002004E00348406840F002000149486029
:101CA00070470000002004E031B5002400F028F95E
:101CB000044600BF00F024F9001B00998842F9D3C4
:101CC00038BD000070B504460025002C05DD02E09B
:101CD0006410681CC5B2012CFAD1044850F82500E4
:101CE00018B1024951F82500804770BDEC01002071
:101CF00010B5044604480068204020B10248046042
:101D00002046FFF7DFFF10BD1404014078B50346FD
:101D1000002200240020CAE0012696400D6805EA52
:101D20000604002C71D04D68022D02D04D68122D92
:101D300013D1D60803F1200555F826005507EE0EFD
:101D40000F25B540A8435607F60E0D69B540284348
:101D5000D60803F1200545F826001868560003252B
:101D6000B540A8430D7905F003055600B54028435A
:101D700018604D68012D08D04D68022D05D04D68C2
:101D8000112D02D04D68122D13D1986856000325ED
:101D9000B540A8435600CD68B540284398605868C0
:101DA00001259540A8430D79C5F3001595402843BA
:101DB0005860D86856000325B540A84356008D6882
:101DC000B5402843D8604D6805F08055B5F1805F77
:101DD0006CD100BF394D2D6845F00105374E356097
:101DE00035462D6805F00105009500BF00BF344D54
:101DF000960855F8260095072E0F0F25B540A843E5
:101E0000304DAB4202D1002515E04FE02E4DAB42E4
:101E100001D101250FE02D4DAB4201D102250AE091
:101E20002B4DAB4201D1032505E02A4DAB4201D138
:101E3000042500E005259607360FB5402843204DC0
:101E4000960845F82600244D2868A0434D6805F4FF
:101E50008035B5F5803F00D120431F4D28602D1DF2
:101E60002868A0434D6805F40035B5F5003F00D162
:101E70002043194D2D1D28602D1D2868A0434D6855
:101E800005F48015B5F5801F00D12043124D0835AB
:101E900028602D1D2868A0434D6805F40015B5F590
:101EA000001F00D120430C4D0C352860521C0D68DA
:101EB000D540002D7FF430AF78BD000020380240BF
:101EC00008000140000002400004024000080240F7
:101ED000000C024000100240000401400246136959
:101EE0000B400BB1012000E00020704742694A40DE
:101EF000426170470AB1816101E00B048361704760
:101F00000148006870470000300000200248006867
:101F1000401C0149086070473000002010B50320C4
:101F200000F068F8002000F005F800F017F8002035
:101F300010BD000070B50446074800684FF47A7180
:101F4000B0FBF1F5284601F00DFD00222146501EA0
:101F500000F012F8002070BD2C000020704700BF78
:101F600000F01F02012191404209920002F1E0229B
:101F7000C2F8001100BF70472DE9F05F80460D46A2
:101F80001646002702F0DAF9074639462A46334654
:101F900001F00700C0F1070ABAF1040F02D94FF0AF
:101FA000040A01E0C0F1070AD14600F1040ABAF1BF
:101FB000070F02D24FF0000A01E0A0F1030AD44655
:101FC0004FF0010A0AFA09FAAAF1010A0AEA020A1A
:101FD0000AFA0CFA4FF0010B0BFA0CFBABF1010BF8
:101FE0000BEA030B4AEA0B042146404602F0AEF925
:101FF000BDE8F09F00BF00F00702064B19684FF6DE
:10200000FF031940044B0B4343EA0221014B1960C3
:1020100000BF70470CED00E00000FA0501208102CE
:1020200091FAA1F1B1FA81F1014A42F82100704719
:1020300000000E420120410291FAA1F1B1FA81F1B2
:10204000014A42F82100704700000E420020102192
:1020500091FAA1F1B1FA81F1014A42F821007047E9
:1020600000000E420D4A126822F0030202430B4B9D
:102070001A600B4A126842F00402094B1A600129E7
:1020800001D130BF02E040BF20BF20BF044A126828
:1020900022F00402024B1A607047000000700040FA
:1020A00010ED00E0F8B5044600260025207800F089
:1020B000010000287ED0207800F0010000B100BFB0
:1020C00000276A48006800F0805070B900BF674878
:1020D000006840F08050654908600846006800F0DC
:1020E0008050009000BF00BF01276148006800F4E5
:1020F0008070B0B95E48006840F480705C49086048
:10210000FFF7FEFE064606E0FFF7FAFE801B642896
:1021100001D90320F8BD5648006800F480700028FB
:10212000F2D052482438006800F0C045606800F0E2
:10213000C040A8420DD0606800F44030B0F5403F88
:1021400007D14A482438006800F4003008B1012063
:10215000E0E746481030006800F44035002D59D0C3
:10216000606800F44030A84254D0207800F00100AC
:1021700078B33E481030006820F440350121C8058E
:1021800090FAA0F0B0FA80F03A4A02EB8000C0F872
:10219000801600214FF4000090FAA0F0B0FA80F011
:1021A00002EB8000C0F8801630481030056005F45E
:1021B000807000E057E060B1FFF7A2FE064609E03C
:1021C000FFF79EFE801B41F28831884202D903202E
:1021D000A0E71FE04020C10091FAA1F1B1FA81F11E
:1021E00008430121B1EB601F03D120482438006867
:1021F00002E01E48103000684021CA0092FAA2F2A4
:10220000B2FA82F2114301F01F020121914008400D
:102210000028D5D000BF00BF606800F44030B0F5A2
:10222000403F0BD111482438006820F0C04061685D
:1022300001F0C04108430D492439086000BF0B4834
:1022400010300068616801F44031084307491031DB
:10225000086000BF012F05D10448006820F08050BD
:102260000249086000BF002054E700002438024003
:10227000007000400000474270B504460D4600263D
:10228000B348006800F00100A84218D200BF012D39
:1022900005D1AF48006840F00400AD490860AC4883
:1022A000006820F001002843A949086000BF0846E3
:1022B000006800F00100A84201D0012070BD207824
:1022C00000F00200022807D1A248006820F0F000C8
:1022D000A16808439F490860207800F001000028A9
:1022E0007BD06068022821D12020010391FAA1F15E
:1022F000B1FA81F108430121B1EB601F03D1954888
:102300000838006802E093482C30006820210A0356
:1023100092FAA2F2B2FA82F2114301F01F020121F5
:102320009140084000286CD10120C7E7606803286D
:1023300020D12020010591FAA1F1B1FA81F10843E1
:102340000121B1EB601F03D182480838006802E028
:1023500080482C30006820210A0592FAA2F2B2FAD5
:1023600082F2114301F01F02012191400840A8BBF5
:102370000120A3E76068012820D12020022191FAE2
:10238000A1F1B1FA81F108430121B1EB601F03D142
:1023900070480838006802E06E482C300068202140
:1023A000022292FAA2F2B2FA82F2114301F01F0263
:1023B00001219140084088B901207FE720200101D8
:1023C00091FAA1F1B1FA81F108430121B1EB601F4B
:1023D00005D160480838006804E069E011E05D4814
:1023E0002C30006820210A0192FAA2F2B2FA82F29D
:1023F000114301F01F0201219140084008B901205A
:102400005CE75448006820F00300616808435149C4
:102410000860FFF775FD06466068022810D108E0E5
:10242000FFF76EFD801B41F28831884201D90320FD
:1024300044E74848006800F00C000828F0D137E075
:102440006068032810D108E0FFF75AFD801B41F2B5
:102450008831884201D9032030E73E48006800F007
:102460000C000C28F0D123E06068012810D108E0AE
:10247000FFF746FD801B41F28831884201D90320D5
:102480001CE73448006800F00C000428F0D10FE08D
:1024900008E0FFF735FD801B41F28831884201D901
:1024A00003200BE72B48006800F00C000028F0D157
:1024B0002748006800F00100A84218D900BF012D8C
:1024C00005D12348006840F00400214908602048F5
:1024D000006820F0010028431D49086000BF08463D
:1024E000006800F00100A84201D00120E6E6207853
:1024F00000F00400042807D11648006820F4E060CA
:10250000E168084313490860207800F008000828B3
:1025100008D11048006820F46050216940EAC100E9
:102520000C49086000F04EF80A49096801F0F00112
:10253000F02292FAA2F2B2FA82F2D140064A515C3B
:10254000C840064908600020FFF7F4FC0020B5E60B
:10255000003C024008380240F59C00082C00002096
:1025600001480068704700002C00002000B5FFF70C
:10257000F7FF0749096801F4E0614FF4E06292FA5D
:10258000A2F2B2FA82F2D140024A515CC84000BDC8
:1025900008380240059D000800B5FFF7E1FF074934
:1025A000096801F460514FF4605292FAA2F2B2FA53
:1025B00082F2D140024A515CC84000BD0838024056
:1025C000059D0008F0B5002100230024002200250D
:1025D0000020254E316801F00C067EB3042E04D095
:1025E000082E04D00C2E2AD103E020483AE02048DF
:1025F00038E001F470164FF4701797FAA7F7B7FA9E
:1026000087F7FE401B4FBB5D01F440064FF44007C7
:1026100097FAA7F7B7FA87F7FE40741C124E366890
:1026200006F4803626B1124E5E43B6FBF4F203E0A8
:102630000E4E5E43B6FBF4F2104613E000E000BF1E
:10264000094E361F366806F460464FF4604797FA25
:10265000A7F7B7FA87F726FA07F56E1C0127B740E8
:10266000F80300BF00BFF0BD083802400024F400AA
:1026700000127A00EC9C0008F8B50446002520788A
:1026800000F00100002879D0F748006800F00C0045
:1026900008280CD0F448006800F00C000C282BD15E
:1026A000F148006800F48030B0F5803F24D120204C
:1026B000010391FAA1F1B1FA81F108430121B1EBD3
:1026C000601F03D1E8480838006802E0E6482C3073
:1026D000006820210A0392FAA2F2B2FA82F21143B0
:1026E00001F01F020121914008400028CBD0606812
:1026F000002843D10120F8BD00BF6068012808D13F
:10270000D9480838006840F48030D7490839086053
:102710002DE0606868B9D4480838006820F480303B
:10272000D149083908600846006820F48020086014
:102730001DE0606805280DD1CB480838006840F4DA
:102740008020C949083908600846006840F4803094
:1027500008600CE0C4480838006820F48030C249A2
:10276000083908600846006820F48020086000BF2F
:10277000606860B3FFF7C4FB054607E052E0FFF76F
:10278000BFFB401B642801D90320B4E720200103CC
:1027900091FAA1F1B1FA81F108430121B1EB601F77
:1027A00003D1B1480838006802E0AF482C30006817
:1027B00020210A0392FAA2F2B2FA82F2114301F046
:1027C0001F020121914008400028D8D02AE0FFF7DD
:1027D00097FB054606E0FFF793FB401B642801D9F1
:1027E000032088E72020010391FAA1F1B1FA81F1D9
:1027F00008430121B1EB601F03D19B4808380068F2
:1028000002E099482C30006820210A0392FAA2F2D3
:10281000B2FA82F2114301F01F02012191400840F7
:102820000028D8D1207800F00200022845D18E4837
:10283000006800F00C0004280AD08B48006800F003
:102840000C000C283BD18848006800F48030A8BBFD
:102850002020022191FAA1F1B1FA81F1084301216E
:10286000B1EB601F03D180480838006802E07E4861
:102870002C3000682021022292FAA2F2B2FA82F2EF
:10288000114301F01F0201219140084020B1E0688E
:10289000012801D001202EE77348001F006820F4B2
:1028A000F8504FF4F85292FAA2F2B2FA82F2216989
:1028B000914008436C49091F08607DE0FFE7E0682C
:1028C000F0B3012090FAA0F1B1FA81F1674A42F821
:1028D0002100FFF715FB054606E0FFF711FB401B43
:1028E000022801D9032006E72020022191FAA1F154
:1028F000B1FA81F108430121B1EB601F03D15A48BD
:102900000838006802E058482C3000682021022274
:1029100092FAA2F2B2FA82F2114301F01F020121EF
:10292000914008400028D8D04F48001F006820F48C
:10293000F8504FF4F85292FAA2F2B2FA82F200E0A2
:1029400006E02169914008434749091F086033E0C8
:102950000020012191FAA1F1B1FA81F1434A42F834
:102960002100FFF7CDFA054606E0FFF7C9FA401B44
:10297000022801D90320BEE62020022191FAA1F10C
:10298000B1FA81F108430121B1EB601F03D1364850
:102990000838006802E034482C3000682021022208
:1029A00092FAA2F2B2FA82F2114301F01F0201215F
:1029B000914008400028D8D1207800F0100010285D
:1029C00073D12948006800F00C0000286ED1202047
:1029D000010191FAA1F1B1FA81F108430121B1EBB2
:1029E000601F03D120480838006802E01E482C30E0
:1029F000006820210A0192FAA2F2B2FA82F211438F
:102A000001F01F0201219140084018B1A06908B9E6
:102A1000012070E61449091F206A096801F4604129
:102A2000884225D9206A01F0C9FE08B1012062E67A
:102A30000D48001F006820F46040216A08430A49DD
:102A4000091F08600846006820F07F404FF07F4271
:102A500092FAA2F2B2FA82F2E16991400843024985
:102A6000091F086023E000000838024000004742C8
:102A7000FC48006820F46040216A0843F949086076
:102A80000846006820F07F404FF07F4292FAA2F2A1
:102A9000B2FA82F2E16991400843F2490860206A83
:102AA00001F08CFE18B1012025E6A5E01FE04FF4EF
:102AB000604191FAA1F1B1FA81F1206AC840401C4D
:102AC00001218140C803E749091D096801F0F001AF
:102AD000F02292FAA2F2B2FA82F2D140E24A515CBA
:102AE000C840E24908600020FFF724FA84E0A069AA
:102AF000F0B30120010291FAA1F1B1FA81F1DC4AAF
:102B000042F82100FFF7FCF9054606E0FFF7F8F967
:102B1000401B022801D90320EDE52020010191FA94
:102B2000A1F1B1FA81F108430121B1EB601F03D19A
:102B3000CC48001F006802E0CA48303000682021FD
:102B40000A0192FAA2F2B2FA82F2114301F01F02D4
:102B50000121914008400028D8D0C248006820F4E4
:102B60006040216A0843BF4908600846006800E0E9
:102B70000DE020F07F404FF07F4292FAA2F2B2FACD
:102B800082F2E16991400843B649086034E00020D0
:102B90004FF4807191FAA1F1B1FA81F1B44A42F88F
:102BA0002100FFF7ADF9054606E0FFF7A9F9401B44
:102BB000022801D903209EE52020010191FAA1F10C
:102BC000B1FA81F108430121B1EB601F03D1A5489F
:102BD000001F006802E0A3483030006820210A018D
:102BE00092FAA2F2B2FA82F2114301F01F0201211D
:102BF000914008400028D8D1207800F0080008282B
:102C00006ED16069A8B3012090FAA0F1B1FA81F108
:102C1000974A02EB8101C1F88006FFF771F905467A
:102C200006E0FFF76DF9401B022801D9032062E599
:102C30004020022191FAA1F1B1FA81F1084301216A
:102C4000B1EB601F03D18748001F006802E0854890
:102C5000303000684021022292FAA2F2B2FA82F2E7
:102C6000114301F01F020121914008400028D8D0F3
:102C700036E0FFE70021012090FAA0F0B0FA80F0E2
:102C80007B4A02EB8000C0F88016FFF739F9054651
:102C900006E0FFF735F9401B022801D903202AE599
:102CA0004020022191FAA1F1B1FA81F108430121FA
:102CB000B1EB601F03D16B48001F006802E0694858
:102CC000303000684021022292FAA2F2B2FA82F277
:102CD000114301F01F020121914008400028D8D182
:102CE000207800F00400042875D100265D482030CB
:102CF000006800F0805080B900BF5A48203000685A
:102D000040F080505749203108600846006800F0C4
:102D10008050009000BF00BF01265648006800F4B4
:102D20008070B0B95348006840F480705149086021
:102D3000FFF7E6F8054606E0FFF7E2F8401B6428D7
:102D400001D90320D7E44B48006800F480700028C4
:102D5000F2D000BFA068012808D142483030006896
:102D600040F480703F49303108602DE0A06868B9B8
:102D70003C483030006820F480703A4930310860B7
:102D80000846006820F4806008601DE0A0680528FF
:102D90000DD134483030006840F480603149303122
:102DA00008600846006840F4807008600CE02D4818
:102DB0003030006820F480702A49303108600846BD
:102DC000006820F48060086000BFA06870B3FFF75F
:102DD00097F8054609E06AE0FFF792F8401B41F2D8
:102DE0008831884201D9032085E44020C10091FA4E
:102DF000A1F1B1FA81F108430121B1EB601F03D1C8
:102E00001848001F006802E0164830300068402172
:102E1000CA0092FAA2F2B2FA82F2114301F01F0242
:102E20000121914008400028D6D035E0FFF768F82E
:102E3000054608E0FFF764F8401B41F288318842FC
:102E400001D9032057E44020C10091FAA1F1B1FA61
:102E500081F108430121B1EB601F0DD10148001F32
:102E600000680BE004380240F59C00082C000020AC
:102E700000004742007000406C4800684021CA00D2
:102E800092FAA2F2B2FA82F2114301F01F0201217A
:102E9000914008400028CDD1012E07D16348103859
:102EA000006820F0805061491039086000BF606AF6
:102EB000F0B35E482C38006800F00C000C287AD083
:102EC000606A022879D100204FF0807191FAA1F157
:102ED000B1FA81F1564A42F82100FFF711F8054690
:102EE00006E0FFF70DF8401B022801D9032002E499
:102EF0002020010591FAA1F1B1FA81F108430121E5
:102F0000B1EB601F03D149483438006801E04748FD
:102F1000006820210A0592FAA2F2B2FA82F2114365
:102F200001F01F020121914008400028D9D100E0A2
:102F30007AE0D4E90A010843216B08433B492C3964
:102F4000096821F47D01084338492C3908600120C3
:102F5000010691FAA1F1B1FA81F1354A42F8210056
:102F6000FEF7CEFF054606E0FEF7CAFF401B02282B
:102F700001D9032009E42020010591FAA1F1B1FA59
:102F800081F108430121B1EB601F03D12748343898
:102F9000006801E02548006820210A0592FAA2F2A3
:102FA000B2FA82F2114301F01F0201219140084060
:102FB0000028D9D038E035E0FFE700214FF08070DD
:102FC00090FAA0F0B0FA80F0194A42F82010FEF70B
:102FD00097FF054606E0FEF793FF401B022801D944
:102FE000032058E42020010591FAA1F1B1FA81F102
:102FF00008430121B1EB601F03D10C48343800684D
:1030000001E00A48006820210A0592FAA2F2B2FA09
:1030100082F2114301F01F02012191400840002873
:10302000D9D101E0012036E4002034E434380240F4
:1030300000004742704770B50446002500BF207F5E
:10304000012801D1022070BD0120207700BF02209D
:10305000607700BFCA202168486253202168486217
:1030600000BF2068806820F4806021688860206844
:10307000806820F4804021688860FEF741FF0546A3
:1030800012E0FEF73DFF401BB0F57A7F0CD900BF80
:10309000FF202168486200BF0320607700BF002046
:1030A000207700BF0320CEE72068C068C0F380000F
:1030B0000028E6D000BFFF202168486200BF012041
:1030C000607700BF0020207700BF00BFBBE77047DC
:1030D00010B5044620688068C0F3003078B12068DD
:1030E000C068C0F3002050B12046FFF7F0FF206811
:1030F000C06800F0800060F4C0702168C86020687B
:103100008068C0F3403078B12068C068C0F34020C8
:1031100050B12046FFF78EFF2068C06800F08000A5
:1031200060F420702168C8604FF4003002490860E4
:103130000120607710BD00001404014070B5044602
:103140000D46002600BF207F012801D1022070BD5E
:103150000120207700BF0220607700BFCA202168CD
:10316000486253202168486200BFB5F5807F29D1AD
:103170002068806820F480702168886020688068FA
:1031800020F4805021688860FEF7BAFE064612E0FF
:10319000FEF7B6FE801BB0F57A7F0CD900BFFF208A
:1031A0002168486200BF0320607700BF00202077BD
:1031B00000BF0320CBE72068C06800F001000028B2
:1031C000E6D028E02068806820F4007021688860DC
:1031D0002068806820F4005021688860FEF790FE27
:1031E000064612E0FEF78CFE801BB0F57A7F0CD904
:1031F00000BFFF202168486200BF0320607700BF46
:103200000020207700BF0320A1E72068C068C0F33A
:1032100040000028E6D000BFFF202168486200BFC0
:103220000120607700BF0020207700BF00BF8EE73D
:103230002DE9F04106460C46174698460025B7F59D
:10324000807F05D14FF48070A0613068C56904E0CB
:103250004FF40070A0613068056AC5F30540207026
:10326000C5F30620607005F07F00A07005F48000B3
:10327000000CE070C5F30560207505F0804020610A
:1032800005F08030E060B8F1000F0FD1207801F038
:1032900001FB2070607801F0FDFA6070A07801F009
:1032A000F9FAA070207D01F0F5FA20750020BDE844
:1032B000F081000070B505460B46164600242868CC
:1032C00040680E4900EA0104200CD870C4F30420C1
:1032D000587004F03F009870C4F3423018705EB923
:1032E000D87801F0D7FAD870587801F0D3FA58702E
:1032F000987801F0CFFA9870002070BD3FFFFF0072
:103300002DE9F04106460C46174600253068006856
:103310000F4900EA0105C5F305402070C5F30620FA
:10332000607005F07F00A07005F48000000CE07074
:103330005FB9207801F0AEFA2070607801F0AAFA47
:103340006070A07801F0A6FAA0700020BDE8F081BE
:103350007F7F7F0010B504460CB9012010BD607F4F
:1033600020B900202077204600F04EF80220607738
:1033700000BFCA202168486253202168486200BF0C
:10338000204601F09FFA40B100BFFF20216848624B
:1033900000BF042060770120E0E7206880681949B9
:1033A00008402168886021696068084361690843B2
:1033B000216889680843216888602168E06808619D
:1033C00020680169208941EA00402168086120687D
:1033D000C06820F080002168C8602068006C20F47C
:1033E0008020216808642068006CA1690843216876
:1033F000086400BFFF202168486200BF0120607799
:103400000020ABE7BFFF8FFF704700002DE9F047BA
:1034100004460D4616460027B84600BF207F012807
:1034200002D10220BDE8F0870120207700BF0220F2
:1034300060774EBB2068806800F0400000B102E079
:103440000020E87000BF286900B900E000BF2878BC
:1034500001F02BFA4FEA0049687801F026FA49EAB0
:103460000029A87801F021FA49EA0009E87849EA38
:103470000049287D01F019FA49EA006029690843EA
:10348000E96840EA01082AE02068806800F040000E
:1034900020B1287801F0FEF9804602E00020E870B3
:1034A00000BF286920B9287D01F0F4F9804604E0C6
:1034B000287D01F0EFF9804600BF28780004697884
:1034C00040EA0120A9780843E97840EA0140297DD3
:1034D00040EA016029690843E96840EA010800BF41
:1034E000CA202168486253202168486200BFA86949
:1034F000B0F5807F3AD12068806820F48070216820
:1035000088602068C06800F0800060F4C0702168A6
:10351000C860FEF7F5FC074612E0FEF7F1FCC01BA1
:10352000B0F57A7F0CD900BFFF202168486200BF48
:103530000320607700BF0020207700BF032071E7E1
:103540002068C06800F001000028E6D02068C0F8BC
:103550001C802068806840F4807021688860206842
:10356000806840F480502168886039E02068806875
:1035700020F40070216888602068C06800F0800036
:1035800060F420702168C860FEF7BAFC074612E0BC
:10359000FEF7B6FCC01BB0F57A7F0CD900BFFF2048
:1035A0002168486200BF0320607700BF00202077B9
:1035B00000BF032036E72068C068C0F34000002841
:1035C000E6D02068C0F820802068806840F4007051
:1035D000216888602068806840F400502168886015
:1035E0000D48006840F400300B4908600A48083074
:1035F000006840F4003008490831086000BFFF202F
:103600002168486200BF0120607700BF002020775A
:1036100000BF00BF06E70000000401402DE9F041B3
:1036200004460D461646002700BF207F012802D120
:103630000220BDE8F0810120207700BF02206077E2
:103640004EB9687800F01000102804D1687800F0B6
:10365000EF000A30687086B9E87801F026F90304B3
:10366000687801F022F943EA0023A87801F01DF9F7
:103670000343287843EA403711E0687801F00AF9FB
:103680000746A87801F006F90746E878000469784B
:1036900040EA0120A9780843297840EA413700BF71
:1036A000CA202168486253202168486200BF204632
:1036B00001F008F960B100BFFF202168486200BF37
:1036C0000420607700BF0020207700BF0120B0E712
:1036D00013483840216848602068C06820F08000A6
:1036E0002168C860204600F0B3F860B100BFFF2039
:1036F0002168486200BF0420607700BF0020207767
:1037000000BF012095E700BFFF202168486200BF8D
:103710000120607700BF0020207700BF00BF88E74E
:103720003FFFFF002DE9F04104460D4616460027F5
:1037300000BF207F012802D10220BDE8F0810120D6
:10374000207700BF02206077CEB92068806800F043
:10375000400000B102E00020E87000BF287801F0CE
:10376000A4F80304687801F0A0F843EA0023A878DD
:1037700001F09BF80343E87843EA004716E020682D
:10378000806800F0400020B1287801F083F80746F7
:1037900002E00020E87000BF28780004697840EA61
:1037A0000120A9780843E97840EA014700BFCA2010
:1037B0002168486253202168486200BF204601F01A
:1037C00081F860B100BFFF202168486200BF04207B
:1037D000607700BF0020207700BF0120ADE71B48C5
:1037E0003840216808602068806820F480202168C3
:1037F0008860D5E901010843216889680843216888
:1038000088602068C06820F080002168C860204679
:1038100000F01EF860B100BFFF202168486200BFC1
:103820000420607700BF0020207700BF012084E7DC
:1038300000BFFF202168486200BF0120607700BF01
:103840000020207700BF00BF77E700007F7F7F0068
:1038500070B5044600252068C06820F0A0002168EB
:10386000C860FEF74DFB054607E0FEF749FB401B2D
:10387000B0F57A7F01D9032070BD2068C06800F0E0
:1038800020000028F1D00020F6E710B504460CB95E
:10389000012010BD2068006820F040002168086009
:1038A000204600F048F80020606584F8510000BF11
:1038B00084F8500000BF00BFEBE710B504460CB918
:1038C000012010BD94F8510028B9002084F8500060
:1038D000204600F031F8022084F85100206800688A
:1038E00020F0400021680860D4E901010843E16844
:1038F00008432169084361690843218B01F4007181
:103900000843E1690843216A0843A16A0843216822
:1039100008600421A06901EA1040616A0843216837
:1039200048602168E06A086100206065012084F831
:1039300051000020C5E770477047042808D14FF0B8
:10394000E021096941F004014FF0E022116107E034
:103950004FF0E021096921F004014FF0E0221161EC
:103960007047704770B504462546681EB0F1807FE9
:1039700001D301200FE0681E4FF0E02148610F21C4
:103980004FF0FF3000F0E2FC00204FF0E0218861B2
:1039900007200861002070BD10B5FFF7E2FF10BDE1
:1039A00010B504460CB9012010BD94F8350028B9B3
:1039B000002084F83400204600F00CF8022084F83F
:1039C0003500211D206803F015FF012084F8350023
:1039D0000020E9E738B504462068B0F1804F16D1E1
:1039E00000BF2648006840F00100244908600846EE
:1039F000006800F00100009000BF00BF0022052118
:103A00001C20FEF7B9FA1C20FEF7A9FA34E01C4985
:103A10002068884216D100BF1848006840F00200B4
:103A2000164908600846006800F00200009000BFD8
:103A300000BF002206211D20FEF79EFA1D20FEF782
:103A40008EFA19E00F492068884215D100BF0B4853
:103A5000006840F00400094908600846006800F06A
:103A60000400009000BF00BF002206211E20FEF7C8
:103A700083FA1E20FEF773FA38BD00002438024096
:103A8000000400400008004001460868C06840F09B
:103A900001000A68D0600868006840F001000A6808
:103AA000106000207047704710B504462068006918
:103AB000C0F34000D8B12068C068C0F34000B0B186
:103AC0006FF002002168086101202075206880697C
:103AD00000F0030018B12046FFF7E5FF05E020469F
:103AE00000F08BF8204600F089F80020207520684F
:103AF0000069C0F38000D8B12068C068C0F38000BE
:103B0000B0B16FF0040021680861022020752068C0
:103B1000806900F4407018B12046FFF7C4FF05E04B
:103B2000204600F06AF8204600F068F80020207572
:103B300020680069C0F3C000D8B12068C068C0F335
:103B4000C000B0B16FF00800216808610420207542
:103B50002068C06900F0030018B12046FFF7A3FFFA
:103B600005E0204600F049F8204600F047F8002024
:103B7000207520680069C0F30010D8B12068C068C3
:103B8000C0F30010B0B16FF0100021680861082088
:103B900020752068C06900F4407018B12046FFF716
:103BA00082FF05E0204600F028F8204600F026F8C5
:103BB000002020752068006900F0010058B12068DD
:103BC000C06800F0010030B16FF0010021680861A9
:103BD000204600F015F820680069C0F3801058B145
:103BE0002068C068C0F3801030B16FF040002168D9
:103BF0000861204600F042F810BD70477047000091
:103C00000168B1F1804F2AD0154A0168914219D15B
:103C100014490988491C134A118013490978F1B1E4
:103C200012490978491C114A117011460978032973
:103C300015DD00210C4A11700C4A117001210C4A4B
:103C400011700CE00B4A0168914208D10A490978C9
:103C5000FF2904DA08490978491C074A117070479E
:103C6000000400401E00002027000020210000204A
:103C7000260000200008004020000020704710B5FA
:103C800004460CB9012010BDA06900B100E000BFDE
:103C900094F8390028B9002084F83800204600F054
:103CA00025F8022084F839002068C06820F400500C
:103CB0002168C860204603F0BBFF2068006920F43B
:103CC0009040216808612068406920F02A0021683E
:103CD00048612068C06840F400502168C860002036
:103CE000E063012084F839000020CCE7704730B54C
:103CF0000346002493F83940012C01D0122C37D10F
:103D000001B10AB9012030BD00BF93F83800012885
:103D100001D10220F7E7012083F8380000BF996243
:103D20009A85DA850020D86393F83900122803D1E8
:103D3000322083F8390002E0222083F8390000BFE6
:103D4000002083F8380000BF1868C06840F4807015
:103D50001D68E8601868406940F001001D686861EE
:103D60001868C06840F020001D68E8600020CAE7BD
:103D70000220C8E700B587B0142102A8FCF71AFC9E
:103D800000BF1048006840F002000E490860084675
:103D9000006800F00200019000BF00BF0122C021B6
:103DA0000948FEF7A7F8C0200290112003900120D7
:103DB00004900220059002A90348FDF7A7FF07B071
:103DC00000BD00001C380240000402402DE9F04113
:103DD00004460E4617464FF00008002020700122CE
:103DE00080212A48FEF786F8012000F023F980257B
:103DF0001FE0012240212548FEF77CF80120FDF755
:103E0000E0FC384600F0A8F880460320FDF7D9FC16
:103E100080211E48FEF762F810B1207828432070F8
:103E2000002240211948FEF765F80120FDF7C9FC82
:103E30006D10002DDDDC002000F0FCF82EB9002212
:103E400080211248FEF756F804E0012280210F4835
:103E5000FEF750F80120FDF7B4FC012240210B4889
:103E6000FEF748F80520FDF7ACFC0022402107488A
:103E7000FEF740F8012280210448FEF73BF81420A9
:103E8000FDF79FFC4046BDE8F081000000040240C1
:103E900010B586B00446142101A8FCF78BFB402026
:103EA0000190012C02D01120029001E0002002902C
:103EB000012003900220049001A90248FDF726FF8B
:103EC00006B010BD0004024010B5012280210F4849
:103ED000FEF710F80120FDF774FC012240210B4889
:103EE000FEF708F80120FDF76CFC0022802107484E
:103EF000FEF700F80A20FDF764FC00224021034889
:103F0000FDF7F8FF0A20FDF75CFC10BD000402403D
:103F100010B5002240210F48FDF7ECFF0120FDF70E
:103F200050FC002280210B48FDF7E4FF0120FDF743
:103F300048FC012240210748FDF7DCFF0A20FDF77D
:103F400040FC012280210348FDF7D4FF0A20FDF741
:103F500038FC10BD0004024070B504460025012065
:103F6000FFF796FF0AE0201EA4F10101CCB201D1B7
:103F7000042070BD4FF47A70FDF723FC4021054802
:103F8000FDF7ACFF0028EED00020FFF781FF2846A8
:103F9000EFE700000004024070B5054600268024CB
:103FA00021E004EA050028B9002280212048FDF71D
:103FB000A1FF04E0012280211D48FDF79BFF0120A5
:103FC000FDF7FFFB012240211948FDF793FF052073
:103FD000FDF7F7FB002240211548FDF78BFF01207C
:103FE000FDF7EFFB6410002CDBDC01228021104880
:103FF000FDF780FF012240210D48FDF77BFF0120E6
:10400000FDF7DFFB012000F015F880210848FDF7DF
:1040100065FF00B10126002240210548FDF76AFF37
:104020001420FDF7CEFB002000F004F8304670BDF0
:104030000004024010B586B00446142101A8FCF724
:10404000B9FA80200190012C02D01120029001E0E9
:1040500000200290012003900220049001A9024850
:10406000FDF754FE06B010BD0004024070B5C0B0AC
:1040700006460D460024E9B255223046FDF705FC00
:104080000446002C65D0A11BA81F814201DD40B071
:1040900070BD6078012800D0F9E705212046FDF7C2
:1040A00081FB6179884200D0F1E7E078A17800EBEC
:1040B00001204DF2C201884200D0E8E720790128B2
:1040C00000D0E4E74FF480716846FCF773FA4FF4D0
:1040D00080716846FCF76EFA55208DF800000120CB
:1040E0008DF80100D0208DF80200C2208DF8030069
:1040F00001208DF8040000208DF80500164890F985
:104100000030164890F9002015A10DF10700FCF7CA
:104110007FF80DF10700FCF7B7F9401CC0B28DF82D
:1041200006009DF80600801DC1B26846FDF73AFB07
:104130009DF80610891D0DF801009DF80600C01DB0
:10414000C1B21048826A684690470F48FDF774FD77
:1041500000BF00BF9BE7000001000020000000201E
:1041600074656D706572617475726528A1E6293A8F
:1041700025647C68756D6964697479282525293AF8
:1041800025640000909C00087C01002010B592B0CE
:104190004FF47A741E480088B0F57A7F35DD002030
:1041A0001B49088010A911A804F0D8F8BDF84400F4
:1041B00040B218490870BDF8400040B21649087076
:1041C00040216846FCF7F6F940216846FCF7F2F911
:1041D000104890F9002011A16846FCF719F86A46CA
:1041E0000421002000F0FCF940216846FCF7E2F9C8
:1041F000094890F900200CA16846FCF709F86A46C6
:104200000621002000F0ECF900BF12B010BD000044
:104210001E00002000000020010000202025642056
:104220004465677243650000202564202525000051
:1042300000BFFEE710B5C0B00024684600F062FB86
:104240000446002C06DD0448FDF7F6FC21466846CE
:10425000FFF70CFF40B010BD880100207047000040
:1042600010B5084808490860084888600848486050
:104270000848C8600848086108480168024888473B
:1042800010BD00001D47000860000020A146000886
:104290003547000805470008ED460008909C0008D7
:1042A0002DE9F04105460E4617461C46FFF7D8FF9C
:1042B0003A463146284600F009F80348416B20464B
:1042C0008847BDE8F0810000909C0008F0B58BB0F5
:1042D00005460E4614461848C168284688470020FF
:1042E00005900690CDE90704012000210822032350
:1042F000CDE90132CDE90310072000900E480B46AE
:104300000A463146C7690120B847012000210691BD
:1043100007910523CDE90810CDE90231CDE904105C
:104320000820CDE9001004480323072287690120F3
:10433000B8470BB0F0BD0000909C00080248006830
:10434000C0F30220704700000CED00E010B500281B
:1043500007DA0A07140E054A00F00F031B1FD45496
:1043600003E00A07130E024A135410BD18ED00E0D3
:1043700000E400E070B5002419E004F1B001C8B217
:10438000002100F049F90021022000F045F9002148
:10439000102000F041F9002505E00121002000F087
:1043A0003BF9681CC5B2802DF7DB601CC4B2082C39
:1043B000E3DB70BD1CB501200090002302461C21E8
:1043C00001904C48FDF792FA01200090002302462C
:1043D0001E2101904848FDF789FA01200090002332
:1043E00002461D2101904548FDF780FA012000900A
:1043F000002302461F2101904148FDF777FA002172
:10440000AE2000F009F90021022000F005F900219A
:10441000102000F001F90021402000F0FDF80021FB
:10442000812000F0F9F80021CF2000F0F5F80021FC
:10443000A12000F0F1F80021C82000F0EDF80021E3
:10444000A62000F0E9F80021A82000F0E5F80021FE
:104450003F2000F0E1F80021D32000F0DDF800213A
:10446000084600F0D9F80021D52000F0D5F8002149
:10447000802000F0D1F80021D92000F0CDF80021F3
:10448000F12000F0C9F80021DA2000F0C5F8002181
:10449000122000F0C1F80021DB2000F0BDF800215F
:1044A000402000F0B9F80021202000F0B5F80021EC
:1044B000022000F0B1F800218D2000F0ADF80021BD
:1044C000142000F0A9F80021A42000F0A5F8002194
:1044D000A62000F0A1F80021AF2000F09DF80021F7
:1044E000AF2000F099F8FFF745FF0021084600F0E3
:1044F00027F81CBD4804002054040020600400205C
:104500006C04002010B5FFF735FF05A20021084616
:1045100000F066F806A20221002000F061F810BD4C
:10452000204E65776C616E64204564750000000064
:10453000204C6F52612054656D702F52680000004E
:1045400070B504460D4605F1B001C8B2002100F077
:1045500063F8102141EA1410002100F05DF804F026
:104560000F0141F00100002100F056F870BD00007D
:104570002DE9F04107460E46904600250024A8F19B
:104580002000C5B27F2F02DD0027B01CC6B2314625
:104590003846FFF7D5FF002408E004EB05110F4A69
:1045A000505C012100F038F8601CC4B2082CF4DB28
:1045B000701CC1B23846FFF7C3FF002409E004EBCA
:1045C00005110831054A505C012100F025F8601CF6
:1045D000C4B2082CF3DBBDE8F0810000359F000871
:1045E0002DE9F04104460F46154600260EE0AA5D6F
:1045F00039462046FFF7BCFF04F10800C4B2782C0E
:1046000002DD0024B81CC7B2701CC6B2A85D002829
:10461000EDD1BDE8F081000070B504460E4626B12C
:1046200001211848FDF714FB03E000211548FDF7B0
:104630000FFB00211448FDF70BFB002517E00021BC
:104640001248FDF705FB04F0800020B1012110485D
:10465000FDF7FEFA03E000210D48FDF7F9FA01210C
:104660000A48FDF7F5FA6006040E681CC5B2082D6D
:10467000E5DB01210448FDF7EBFA01210148FDF7D4
:10468000E7FA70BD540400204804002060040020B4
:104690006C040020012001490870704707000020C9
:1046A0002DE9F04104460D4616461F460A49C86AE0
:1046B00080470A480580028821460948FBF703FF26
:1046C00070B208490870084807700348416B4FF4FE
:1046D0007A708847BDE8F081909C000802000020B5
:1046E0007C000020040000200500002010B50449D3
:1046F000C86A80470248416B4FF47A70884710BD02
:10470000909C000810B50449C86A80470248416B74
:104710004FF47A70884710BD909C000810B504498A
:10472000C86A80470248416B4FF47A70884710BDD1
:10473000909C000810B50449C86A80470248416B44
:104740004FF47A70884710BD909C000810B5FCF7B4
:104750008BFFFCF7B5FFFFF72DFE4FF4E13003F0C0
:1047600045FCFFF707FEFFF7CDFE0AA0FBF744FD6F
:104770004FF47A731A460E210B48FFF791FD0BA0F8
:10478000FBF73AFD03F0BAFF03F03AFF012003F014
:1047900069F810BDD0C2B4F3C2BDBDCCD3FD204C6E
:1047A0006F5261200D0A000020A2D3194C6F526194
:1047B0002054656D7052680D0A00000018B502465D
:1047C000002300212548006800F0F00050BB23487A
:1047D0001C30006800F0805020B12148006800F4CF
:1047E000C05318E000BF1D481C30006840F08050E6
:1047F0001A4C1C3420602046006800F08050009065
:1048000000BF00BF1648006800F4C053204600688F
:1048100020F080502060B3F5C05F03D1B2F5404F67
:1048200000D1012100BF012905D10E48006840F0E8
:1048300004000C4C20600B48006820F00100084385
:10484000084C206000BF2046006800F0010088424C
:1048500001D0012018BD0020FCE70000083802400C
:1048600000700040003C024010B50948FEF730FCE3
:104870004FF480710648FEF761FC00F091FB00F0F8
:10488000A3F90020FCF79AFE03F096F810BD000093
:1048900040020020014600BF080900EB80004200F2
:1048A00001F00F001044C0B270470146002203E03F
:1048B000521CA1F10A00C1B20A29F9DA100741EA33
:1048C0001060704770B5044600252068C06800F08D
:1048D0004000A0B9681E2168C860FDF711FB0546BD
:1048E00007E0FDF70DFB401BB0F57A7F01D90320EF
:1048F00070BD2068C06800F040000028F1D00020A2
:10490000F6E7000070B5054607480488002C01DC76
:10491000002070BD00200449088022460349284633
:10492000FBF7D1FD2046F4E7020000207C000020C8
:10493000632802D101210B4A11700A490978012923
:104940000ED1094909880144074A1288914207D1CA
:104950000021044A1170044909886431024A118017
:10496000704700000E0000200C0000200FB42DE95D
:10497000F04F8FB08346894614221AA90AA8FBF784
:10498000E7FD9DF872A01AA8477A9DF87080067915
:1049900000BF00BF00BF8048814501D2484600E00B
:1049A0007D488146B9F1000F01D14FF00109484619
:1049B00004F038FB794A7A4BCDE9020104F082FB1E
:1049C000CDE9040103F0B2FE04460D46484604F06A
:1049D00029FB724A724BCDE9040104F073FBCDE967
:1049E000080120462946DDE9082304F005FDCDE94C
:1049F000060100226B4BDDE9060104F063FBCDE903
:104A000002016948006804F0F6FACDE90001DDE929
:104A1000022304F087F8CDE9040104F08FFA62491B
:104A2000086008460068B0F5F47F0CDB08460068B3
:104A3000A0F5F470086000225C4B2046294604F083
:104A400071F804460D4609E00022594B20462946DC
:104A500004F0D2FC04460D46701C86B20022544B72
:104A60002046294604F02CFCEED90BE00022514BE5
:104A70002046294604F0C0FC04460D4608F101001A
:104A80001FFA80F800224B4B2046294604F018FC00
:104A9000ECD909E00022484B2046294604F0ACFC42
:104AA00004460D46781C87B20022434B2046294617
:104AB00004F006FCEED9504604F0B4FA22462B4628
:104AC000CDE9020104F02EF8CDE9040104F066FA04
:104AD0001FFA80FA05E0AAF13C001FFA80FA781C60
:104AE00087B2BAF13C0FF6DA06E0A7F13C0087B2D4
:104AF00008F101001FFA80F83C2FF6DA05E0A8F172
:104B000018001FFA80F8701C86B2B8F1180FF6DA98
:104B10001AA9497959B11AA94979284A12888818D5
:104B2000C11700EB91718910A0EB810181B91AA81E
:104B3000C078401E2249085CB04219DA1AA8C07831
:104B4000401E085C96FBF0F100FB116086B20FE09E
:104B50001AA8C078401E1B49085CB04208DA1AA89F
:104B6000C078401E085C96FBF0F100FB116086B235
:104B70008DF832A00AA8477208F0FF008DF83000C7
:104B80000AA8067114220AA95846FBF7E1FC0FB0E7
:104B9000BDE8F00F5DF814FB42061200FCA9F1D24B
:104BA0004D62004000408F40180000200000F03FA0
:104BB0000018F5400020AC4000004E400C000020E2
:104BC000829C0008769C00082DE9F04F91B04FF0D0
:104BD000000AD3462148007800283CD1684600F0FE
:104BE0004FF91422694605A8FBF7B2FC00234FF4E5
:104BF00080720AA91A48FEF71BFB9DF82A009DF84F
:104C000029103C2202FB01009DF828104FF461623C
:104C100002FB010A9DF81E109DF81D003C2202FBBC
:104C200000109DF81C104FF4616202FB010BABEB0E
:104C30000A0004F0F7F9804600220A4B04F042FA19
:104C4000064603F06FFC044604F0A8F90649086024
:104C500001200249087011B0BDE8F08F1300002058
:104C6000400200200040DF3F140000202DE9F04703
:104C70008AB0064600BF00210C460D4646B968467C
:104C800000F0FEF81422694605A8FBF761FC04E079
:104C90001422314605A8FBF75BFC00271AE037B168
:104CA000F91707EB91718910A7EB810141B9002237
:104CB000494B2046294603F035FF04460D4607E0E0
:104CC0000022464B2046294603F02CFF04460D46A1
:104CD000781C07B29DF81900BDF814100844B842BA
:104CE000DDDC9DF8191059B19DF81910BDF814209C
:104CF0008818C11700EB91718910A0EB8101D9B917
:104D00004FF0000A12E0364911F80A10354A01FB4B
:104D100002F004F087F9074622462B4603F002FF13
:104D200004460D460AF1010000F0FF0A9DF8170045
:104D3000401E5045E7DC1AE04FF0000A12E02A4915
:104D400011F80A10274A01FB02F004F06BF907463C
:104D500022462B4603F0E6FE04460D460AF101000A
:104D600000F0FF0A9DF81700401E5045E7DC9DF853
:104D70001E209DF81D10C1EB011102EB81019DF871
:104D80001C20C2EB4213C3EB022201EB02129DF87E
:104D9000181040F2A323594302EBC11004F042F96A
:104DA000074622462B4603F0BDFE04460D46002270
:104DB0000E4B2046294604F085F904460D46204650
:104DC000294603F0B3FC074604F0E8F8814648465C
:104DD0000AB0BDE8F087000050287E4138137E41BC
:104DE000829C000880510100769C00080040DF3F53
:104DF00010B50D480078A8B90C480078012811D1E9
:104E0000FCF7E8FBFDF722F90948006840F00400D0
:104E100007490860FDF70EF9FDF700F90121084682
:104E2000FDF720F910BD0000110000201000002047
:104E3000007000400F490968884209D90E49097875
:104E4000012905D100210C4A11700A490968401A4C
:104E50000849096888420BD9322803D20021074A41
:104E6000117005E00121054A117002490968401AD4
:104E700070470000140000200F00002010000020E8
:104E800010B586B00446002203A90C48FEF738FA94
:104E900000220DF106010948FEF70CFA08480088C7
:104EA000ADF804009DF80900FFF742FD142201A9A6
:104EB0002046FBF74DFB06B010BD0000400200206D
:104EC0000C00002070B5002400250020FFF7CEFE66
:104ED00004460648FFF7CAFE0546AC4203D2C5F1B8
:104EE000FF30204470BD601BFCE700002C02002056
:104EF00000B585B026480078002846D101218805F4
:104F000090FAA0F0B0FA80F0224A02EB8000C0F8DC
:104F100080162148214908600020486003211F486D
:104F20008160C1600021016141618161FEF712FA77
:104F300000218DF8051001218DF803108DF8041063
:104F400006208DF8020000220DF102011348FEF741
:104F500065FB00208DF8080000218DF809108DF800
:104F60000A108DF80B1003910491002202A90B483E
:104F7000FEF7D8FB002204212920FCF7FDFF2920A1
:104F8000FCF7EDFF01200249087005B000BD0000EC
:104F9000120000200000474200280040400200208C
:104FA00010B50E48406800F0010030B10B480068B1
:104FB00040F004000949086002E001200849087037
:104FC0000848006800F00C00042804D00548006878
:104FD00000F00C0008B9FCF747FB10BD0070004062
:104FE0000F0000200838024010B50446204600F0AB
:104FF00001F810BD10B59AB004464FF480712148F5
:10500000FEF79CF81F48FEF716F804A8FFF738FFD4
:10501000142204A915A8FBF79BFA142215A91A4813
:10502000FBF796FA17A807C88DE80700214604A8E1
:10503000DDE91523FFF79AFC142204A910A8FBF759
:1050400087FA4FF480700F9000200D900C908DF82F
:10505000270010A8807A8DF8260010A8407A8DF8D5
:1050600025009DF848008DF8240010A800798DF8DF
:105070003800002209A90348FEF7C8F900B100BFB3
:105080001AB010BD400200202C0200202DE9F05F74
:10509000092001F0DFF88246062001F0DBF84FEA34
:1050A000004B072001F0D6F84BEA002B082001F056
:1050B000D1F84BEA0009484603F0B4FF0746002246
:1050C0001E4B03F0FFFF054603F068FF0446002176
:1050D000092002F053F83B2001F0BCF800F0BF00BB
:1050E00040F0400529463B2002F048F800BF3B2035
:1050F00001F0B0F800F020002028F8D0104801F0AE
:10510000C7F93B2001F0A6F800F0BF0040F04005D1
:1051100029463B2002F032F800BF3B2001F09AF80C
:1051200000F020002028F8D05146092002F026F88F
:10513000204601F0ADF9BDE8F09F000080844E40AC
:1051400000A1BC3310B502F079F803F039FB03F08D
:10515000FBFB4FF47A5002F061F810BD30B5024607
:105160000B46FF20002113E0555C684008240BE04B
:1051700000F0800525B1312585EA4005E8B201E05F
:105180004506280E651EECB2002CF1DC4D1CE9B280
:105190009942E9DB30BD000070B50446204604F0BA
:1051A000ADFB0646034904F0F1FB0546024904F055
:1051B000A7FA70BD0000C84200FF7F472DE9F0410B
:1051C0000446204604F09AFB0746064904F0DEFB3D
:1051D0000646054904F094FA0546044904F0D4FC57
:1051E000BDE8F08100002F4300FF7F4700003442FC
:1051F0002DE9F04105460E46144631462846FFF794
:10520000ADFF0746A74202D00220BDE8F081002092
:10521000FBE72DE9F04706460F4690461D46DDF8B0
:10522000209015B1012D10D107E04B46424639467A
:10523000304600F010F8044609E04B464246394635
:10524000304600F04EF8044601E0802400BF00BF65
:105250002046BDE8F0872DE9FC4105460E4617467D
:10526000984600F01DF90446CCB97FB1012F07D054
:10527000022F11D142F6104000F024F904460DE04F
:1052800042F60D4000F01EF9044607E042F60640E3
:1052900000F018F9044601E0802400BF00BF14B9F3
:1052A00000F0EEF804462CB94246002101A800F0B7
:1052B000A3F804462CB900220121684600F09CF8AE
:1052C000044600F0FBF84CB9BDF80400FFF776FF88
:1052D0002860BDF80000FFF75FFF30602046BDE8A2
:1052E000FC812DE9FC4106460F4690461D4600F024
:1052F000D7F80446ECB9B8F1000F11D0B8F1010F9E
:1053000008D0B8F1020F11D142F2164000F0DAF8DD
:1053100004460DE042F20B4000F0D4F8044607E0EA
:105320004FF4105000F0CEF8044601E0802400BF96
:1053300000BF8CB908E000F0A3F8044604B908E007
:105340004FF47A70FCF73DFA281EA5F10101CDB2A9
:10535000F1D100BF05B904245CB90022114601A8AF
:1053600000F04AF8044300220121684600F044F8A6
:10537000044300F0A3F84CB9BDF80400FFF71EFF8A
:105380003060BDF80000FFF707FF38602046BDE839
:10539000FC81000000B50448FCF713FA4CF25030D1
:1053A000FCF70FFA00BD0000A086010038B50446E6
:1053B0000025FEF7DFFC204600F04AF800F04EF82A
:1053C0004CF25030FCF7FDF9684600F087F80546CE
:1053D00002A00099FAF710FF284638BD534854330D
:1053E000582053657269616C204E756D626572203C
:1053F0003D20256C750D0A002DE9FC4105460E4641
:1054000017463A46002101A8FEF7E0FC044634B9ED
:10541000002211460DF10500FEF7D8FC04462CB918
:10542000002231466846FEF7D1FC044634B99DF8A7
:105430000020022101A8FFF7DBFE04469DF80500CD
:105440009DF8041040EA012028802046BDE8FC8138
:1054500001490870704700003500002010B500F0C9
:105460001FF8044643F2A20000F02CF8044300F0B9
:1054700025F81CB94CF25030FCF7A3F9204610BDBA
:1054800010B5FEF721FD05490978012202EB410123
:10549000C8B2FEF781FD0446204610BD350000204D
:1054A00010B5FEF711FD044909784906080EFEF70C
:1054B00073FD0446204610BD3500002010B5FEF7F0
:1054C00027FD10BD70B504462012FEF765FD0546A8
:1054D000E0B2FEF761FD0543284670BD38B50546CC
:1054E000FFF7DEFF04464FF45E50FFF7EBFF044387
:1054F00014B9FFF7C5FF04462CB9642200216846A1
:10550000FFF77AFF044634B9002201210DF10200B1
:10551000FFF772FF0446FFF7D1FF34B9BDF8020070
:10552000BDF8001040EA01402860204638BD000068
:1055300010B54420FFF73AFF044624B1FFF702FEFE
:1055400001200749087006480078012803D005A00B
:10555000FAF752FE02E00AA0FAF74EFE10BD000074
:1055600034000020CEC2CAAAB6C8B4ABB8D0C6F7C1
:10557000D0CDBAC5A3BA53485433580D0A00000021
:10558000CEC2CAAAB6C8B4ABB8D0C6F7D0CDBAC5D9
:10559000A3BA53485431580D0A00000070477047B1
:1055A000014601207047000001460348814201D2B4
:1055B000802070470020FCE740DD4A1F014890F83A
:1055C000DC007047780500202DE9F34F93B00020F0
:1055D0001290139810B1012870D170E09749D1F85A
:1055E000F40003F01FFDCDE90C01149803F01AFD3F
:1055F000CDE90601302000F02DFE20F0F90010B1B9
:1056000000208F4901E000200146CDE90401272058
:1056100000F020FE20F0F801491C8848B0F8F8009E
:105620000844019003F0E7FCCDE90201834890F8BB
:10563000FA00012802D10020034601E00020804B3F
:105640000246CDE90003DDE9020103F06BFA804672
:10565000DDE9042303F066FA0646DDE9062303F0DC
:1056600061FACDE90801754890F8FC00012803D1E2
:1056700000204FF0804101E00020014606463246FE
:105680000B46DDE9080103F04DFA00226D4BCDE930
:105690000A0103F017FD8246DDE90C2303F0F6FA58
:1056A0000022694BCDE90E0103F00CFDCDE910019C
:1056B00003F03CF8044603F071FC1290B9E00020BE
:1056C000044605465D48D0F81C01072804D0082888
:1056D00005D0092809D105E000245C4D05E000242F
:1056E0005B4D02E000245B4D00BF00BF534991F8C1
:1056F0002021012101FA02F003F07DFC064632462A
:105700000B462046294603F0C1FACDE910010020DE
:105710004B49DDE9102303F0B9FACDE90E01474901
:10572000B1F8260103F07EFC064600224A4B03F046
:10573000F9F98046DDE90E2303F0C4FCCDE90C0144
:105740003E4991F82511081D03F055FCCDE90201F1
:105750003A49D1F8202191F82411002901DD0221D4
:1057600000E00021511A880003F05CFC06460F4659
:105770001499CA003149D1F82011042303FB1122E6
:105780001C322E4991F82A11102303FB01222B49C8
:1057900091F8281109B1142100E00021501A03F0FA
:1057A00041FC804632463B4603F070FACDE90001E9
:1057B00002F0B8FE8246DDE9022303F083FCCDE966
:1057C0000A0100221346DDE90A0103F079FD02D245
:1057D000DDE90A0101E000200146064632460B469B
:1057E0000020184903F09EF9CDE90801DDE90E23F8
:1057F000DDE9080103F066FCCDE90601DDE90623D9
:10580000DDE90C0103F08EF9CDE9040100220E4B15
:10581000DDE9040103F056FC0646104A104B03F084
:1058200081F9804602F0EEFE824603F0B7FB12904B
:1058300000BF00BF129815B0BDE8F08F78050020BA
:105840000000F03F0000204000408F408084FE4078
:1058500080840E4180841E41000011402B8716D9A0
:10586000CEF7EF3F70B505461B4805601B491C4845
:1058700002F04EF819491B4802F04AF817491A4835
:1058800002F046F800F048FDFFF700FC002000F0B1
:1058900091FE164800F076F8002412E004EB440173
:1058A000134A505C00F036FE04EB4402104B1A44DD
:1058B000917804EB44021A44507801F05FFC601CBC
:1058C000C4B2102CEAD3002000F024FE00200949C5
:1058D00081F8DC0070BD000038000020096100087C
:1058E000B8060020CC060020E00600203C00002086
:1058F00018AB0008780500201CB5012000210B46DC
:105900000246CDE9001004210B48FBF7EFFF002011
:105910000090034602461B2101900748C438FBF75C
:10592000E5FF00200090034602461A21019002483C
:10593000B838FBF7DBFF1CBD480600201CB5012072
:10594000009000230246042101900D48FBF7CEFF92
:105950000020012103460246CDE900101B21084822
:10596000C438FBF7C3FF0020012103460246CDE9FE
:1059700000101A210248B838FBF7B8FF1CBD000020
:105980004806002010B5044603220121054823687B
:10599000FCF73EF90322012102480C306368FCF752
:1059A00037F910BD840500202DE9F04106460C466C
:1059B00015460027304600F0ADFD204600F068FD9A
:1059C000052000F0F7FD0120FBF705FF304600F051
:1059D00079FC074601F09CF9AF4202DD0020BDE8EA
:1059E000F0810120FBE70000F8B500200090D848C6
:1059F00090F8DC00012802D002287DD184E1D4484F
:105A000090F8DD0010B1012877D1D4E0D04890F8AB
:105A1000FC00012842D13F2000F01CFC00909DF8C2
:105A2000000000F00200022838D00B213E2001F0D7
:105A3000A5FB10213F2001F0A1FBC64802F082F82F
:105A4000C34890F8FE0038B9C34802F07BF8002044
:105A5000BF4981F8DC000BE00D2000F0FBFB40F0BB
:105A6000400421460D2001F089FBBB4802F026F8D6
:105A7000BA48006838B1B9480068006918B1B74938
:105A80000968086980470021B14880F8081180F84A
:105A90000911A0F81411A0F8121133E1AC48B0F8C4
:105AA000120158BBAA48B0F8140138BBA84890F8B6
:105AB000FA0020B90121AA4800F0FAFB06E03220E2
:105AC00000F0C8FB0146A248A0F81211A04A92F8C3
:105AD000123192F814219A1AD1B29D4AB2F81421C7
